:020000040000fa
:10000000f0ff02203d0e0000ab180000651a000052
:10001000691a00006b1a00006d1a00000000000051
:10002000000000000000000000000000cf100000f1
:10003000671a000000000000cf100000cf10000081
:10004000cf100000cf100000cf100000cf10000034
:10005000cf100000cf100000cf100000cf10000024
:10006000cf100000cf100000cf100000cf10000014
:10007000cf100000cf100000cf100000cf10000004
:10008000cf100000cf100000cf100000cf100000f4
:10009000cf100000cf100000cf100000cf100000e4
:1000a000cf100000cf100000cf100000cf100000d4
:1000b000cf100000cf100000cf100000cf100000c4
:1000c000cf100000cf100000cf100000cf100000b4
:1000d000cf100000cf100000cf100000cf100000a4
:1000e000cf100000cf100000000000000000000052
:1000f00000000000cf100000cf100000cf10000063
:10010000cf100000cf100000cf100000cf10000073
:10011000cf100000cf1000006d0900006d09000035
:100120006d0900006d090000cf100000cf10000025
:10013000cf100000cf100000f1050000f105000015
:10014000f1050000f1050000cf100000cf10000005
:10015000cf100000cf100000cf100000cf10000023
:10016000cf100000cf100000cf100000cf10000013
:10017000cf100000cf100000cf100000cf10000003
:10018000cf100000cf100000cf100000cf100000f3
:1001900000000000cf100000cf100000cf100000c2
:1001a000cf100000cf100000cf100000cf100000d3
:1001b000cf100000cf100000cf100000cf100000c3
:1001c000cf100000cf100000cf100000cf100000b3
:1001d000cf100000cf100000cf100000cf100000a3
:1001e000cf100000cf100000cf100000cf10000093
:1001f000cf100000cf100000cf100000cf10000083
:10020000cf100000cf100000cf100000cf10000072
:10021000cf100000cf100000cf100000cf10000062
:10022000cf100000cf100000cf100000cf10000052
:10023000cf100000cf100000cf100000cf10000042
:10024000cf100000cf100000cf100000cf10000032
:10025000cf100000cf100000cf100000cf10000022
:020000040000fa
:10026000f8b500bff8bc08bc9e4670477d1500007d
:10027000f8b500bff8bc08bc9e4670475915000091
:020000040000fa
:10028000d80900201c0000000000000038090020f0
:100290002c00000000000000b70900200100000051
:1002a00000000000640900202c0000000000000095
:1002b000170a00200100000000000000180a0020ba
:1002c0000100000000000000190a002001000000e9
:1002d00000000000140600200001000000000000e3
:1002e000060800200200000000000000fc090020b9
:1002f000040000000000000090090020270000001a
:10030000010000000d0a2a2a2a2a2055534152547e
:10031000206572726f7220686173206f63637572fb
:10032000726564202a2a2a2a0d0a00001407002078
:10033000f2000000010000002a2a2a2a2055534119
:100340005254207265616420616e64207772697412
:10035000652066726f6d20434f4d207465726d6924
:100360006e616c202a2a2a2a0d0a2a2a2a2a205457
:100370007970652061206c696e65206f6620636806
:10038000617261637465727320616e64207072655e
:1003900073732074686520456e746572206b65798f
:1003a0002e202a2a2a2a200d0a2a2a2a2a20456ea5
:1003b0007465726564206c696e652077696c6c2069
:1003c0006265206563686f6564206261636b2e20df
:1003d0002a2a2a2a0d0a2a2a2a2a204e6f746520e0
:1003e0007468617420796f7520776f6e277420624e
:1003f000652061626c6520746f2073656520776885
:10040000617420796f752061726520747970696eee
:10041000672c206275742069742773207468657274
:10042000652e202a2a2a2a0d0a000000140a00201c
:1004300003000000010000000d0a0000000a002077
:100440000400000001000000010203041a0a002059
:10045000010000000100000002000000040a00206a
:100460000400000000000000e80800205000000028
:1004700000000000080800207800000001000000d3
:1004800018080020100800201808002000000000b4
:10049000000000002500000008000020000400000b
:1004a000000000000000000000000000000000004c
:1004b000000000000000000000000000000000003c
:1004c000551a0000000000000000000000000000bd
:1004d00000000000691200000000000000000000a1
:1004e000000000000000000000000000000000000c
:1004f00000000000000000000000002008040000d0
:1005000000000000b80900202000000001000000e9
:1005100001000000030000000000000000000000d7
:10052000000000000000000000000000f4090020ae
:10053000f40900200800000000000000080a002064
:100540000400000000000000080400200c0200006d
:10055000000000008008002068000000010000008a
:100560000100000003000000000000000000000087
:100570000000000000000000000000000512000064
:100580000000000000000000000000005b1a0000f6
:10059000751a0000000000000000000000000000cc
:1005a000000000000000000000000000000000004b
:1005b000000000000000000000000000000000003b
:1005c00000000000000000000c0a002004000000f1
:1005d00000000000100a00200400000000000000dd
:1005e00000000000000000002222222222222222fb
:020000040000fa
:1005f0004ff086439b7d002b00f0dc8010b54ff060
:1006000086435b8b13f0020f16d06b4bff2283f8ef
:100610002020022283f82120674b93f820305bb220
:10062000b3f1ff3f00f09380634b93f820305bb24f
:10063000062b00f0a68010bd4ff086435b8b13f0b5
:10064000010f07d05c4bff2283f82020022283f8a1
:100650002120e1e74ff086435b8b13f0040f07d0b6
:10066000554bff2283f82020012283f82120d3e775
:10067000514b93f820305bb2032b45d0042b10d0a4
:10068000022bc9d14c4b1b692bb100214a4b9888d6
:1006900000f0cefec0e70121474b988800f0c8fe6d
:1006a000bae7454a9369126993420cd0424a91686d
:1006b000581c9061ca5c4ff086439a621a46d3690f
:1006c000002bfcd1a8e73c4b5b697bb13a4b9b8884
:1006d0005b0043f001034ff086425362d369002b65
:1006e000fcd1354b032283f8202095e74ff086425a
:1006f000536843f440335360d369002bfcd12e4b35
:10070000062283f8202087e72b4a5369013bd269f0
:100710009a420ed04ff08642d369002bfcd14ff0a5
:100720008643986a244bd968da69541cdc61885482
:1007300072e74ff08642536843f4e0235360d36975
:10074000002bfcd11c4b062283f82020e2e71a4b39
:10075000002283f820204ff08642536843f4403350
:100760005360d369002bfcd14ff0864383221a7665
:10077000114b5b6a002b3ff45eaf0f4a906a9847bb
:1007800059e70d4b002283f8202083f821204ff0f9
:10079000864383221a761a46538b03f03003102bbc
:1007a000fad1054b5b6a002b3ff445af024a906ad1
:0c07b000984740e7704700bf3809002060
:020000040000fa
:1007bc002de9f04f87b0039003a800f0e7fe002866
:1007cc0003da002007b0bde8f08f039b1b095d1e08
:1007dc00202d0fd9023b5e4ab3f5007f35bf02ebeb
:1007ec00d30302ebd31313f8045c13f8045c34bf8b
:1007fc00013511350123a5f12001c5f1200203fac1
:10080c0001f923fa02f203fa05f8d8f1000849ead3
:10081c00020969eb4909cde90089dff84081dff86d
:10082c0030914746d8e90023009902ea010a019960
:10083c0003ea010b5aea0b0342d1039b05a81033c0
:10084c00059301f0b4f818b9424b0c221a60b9e7c1
:10085c00d8f80852a84206d0059b103b05930123fb
:10086c0000f110058360059bea18012143f0010398
:10087c00b5f1080442f8083c42f8041cc7f80822f9
:10088c0045f8043c9dd0204600f098ff88b155f8ff
:10089c00083c55f8041c23f00103e31a5a6822f0b3
:1008ac0001020a445a6055f8041c21f001016250ff
:1008bc001c462046039900f099ff04f1080081e7db
:1008cc005446254bbaf1000f34d1cbf1000000eaad
:1008dc000b00434309ebd36393f83c60203630465e
:1008ec0001f008f8731c57f8334007ebc303083bbf
:1008fc009c4297d0272e26dd0235ae4201dc3f2ede
:10090c0021d16268039922f00102551a284600f0a1
:10091c00b9fe864217d1e068a6686318d8609e605d
:10092c0083609868c36041f0010060505d60a55021
:10093c006060bee7caf100002040434309ebd3637b
:10094c0093f83c60cbe73146204600f03ffdb0e722
:10095c00241300000c0a002029e66b070804002071
:020000040000fa
:10096c00584b9b7d002b00f0ab8010b5554a53685b
:10097c0003f00703127e12f0040f5bd0514a906a09
:10098c00514a5169d268914254d2002b43d14e4bfb
:10099c005a684c1c5c6150544a4b1b7e13f0010f7f
:1009ac0018d0484b01221a75474b9a699b689a429a
:1009bc0058d2454b1968501c98618a5c414b9a621d
:1009cc00414b9a699b689a4261d03f4b5a69db68ec
:1009dc009a4269d03b4b1b7e13f0020f14d03b4b59
:1009ec001b78bbb1384b5a69db689a420fd1364b36
:1009fc0000221a7733490720087534490a701b6a9c
:100a0c0043b1314a506a9847304b1b7813b12d4b88
:100a1c0002229a7510bd2c4b5a684c1c5c6122f852
:100a2c001100284b1b7e13f0010fd3d0254b012254
:100a3c001a7509e0234a127e12f0010fcad0214a1e
:100a4c0001211175002bafd01f4b9a699b689a42fc
:100a5c0012d21d4b1968501c986131f81220194b99
:100a6c009a62ade7184b1b6923b3164aff219162ba
:100a7c00013b154a1361a3e7134b1b69d3b1114a10
:100a8c004ff6ff719162013b0f4a136198e70e4bd1
:100a9c001b69002b99d10d4b01221a70094b1b7e3f
:100aac0013f0020f9ed1b2e7064b01229a75042275
:100abc001a758fe7044b9a699b689a4285d1eae7cd
:100acc00704700bf0020014164090020b7090020d5
:020000040000fa
:100adc003d4b00221a7403f500633c4a9a621a4695
:100aec00536813f0100ffbd1394b4222c3f884200a
:100afc001a46d2f8843013f0400ffad0354b00224e
:100b0c009a6377225a631a46d36b13f0040ffbd106
:100b1c00304b022283f830201a46d36b13f0020fad
:100b2c00fbd12c4a136c03f00303032bfad12a4b91
:100b3c0001225a711a46d37813f0010ffbd0244bc3
:100b4c00264a1a621a46536813f0040ffbd1204b45
:100b5c00234a5a621a46536813f0080ffbd11c4bf8
:100b6c004122c3f890201a46d2f8903013f0400f6f
:100b7c00fad0174b4122c3f8dc201a46d2f8dc30ed
:100b8c0013f0400ffad0124b4122c3f8e0201a4662
:100b9c00d2f8e03013f0400ffad00d4b4122c3f8dd
:100bac0008211a46d2f8083113f0400ffad00a4b3c
:100bbc006ff07f421a6140f2ff725a61094a9a61e2
:100bcc0001221a62704700bf001400400601300079
:100bdc00001c00400010004000080040070101000c
:080bec0007010200568601001a
:020000040000fa
:100bf4002de9f84300286ad050f8043ca0f1080419
:100c040023f00106a719a259934200d0ffde7a68a7
:100c140023681340da070fd4204600f0d3fd0028e0
:100c240057d1384600f013fe0028f0d07b6823f03b
:100c340001031e441f44eae746f0010363603046a3
:100c44003b6000f023fd054600f058fe23687a68f7
:100c54001340db07e0d5dff88ce0dee90089c5f15d
:100c6400200ca5f1200228fa05f009fa0cfc29fa57
:100c740002f240ea0c001043012100ea01020023c1
:100c84001343c5f120007346a5f1200212d121fac5
:100c940000f001fa02f2a94042ea00021ebfdef8a7
:100ca40000000143cef8001022b1def804100a431c
:100cb400cef80420681c03ebc003a3f108026660ad
:100cc4003e60a2605a68e2605c60e3689c60bde8d4
:100cd400f883236823f00103e41a636823f0010313
:080ce4001e449ee708040020f5
:020000040000fa
:100cec0010b582b0234b1b78062b14d8dfe803f029
:100cfc000415241313363e001f4c21461f4800f0e8
:100d0c008bfe0023237001221d49402000f0f0fcd3
:100d1c00184b01221a7002b010bd174b00221a702a
:100d2c0004230093174b02221749402000f0fafcd1
:100d3c00104b02221a70eee70f4b1b78dbb2012b23
:100d4c0008d00d4b1b78dbb2022be4d1094b0622e9
:100d5c001a70e0e7074b05221a70dce704210948fa
:100d6c0000f0acfb034b00221a70d4e7014b0022bd
:100d7c001a70d0e7190a00201a0a0020591900002d
:0c0d8c00170a0020fc090020000a0020cb
:020000040000fa
:100d980010b4254b254a1a604ff002621a610121ee
:100da80083f84c1083f84d1083f84e10002283f816
:100db8004f2083f8552083f85b20222083f83600e3
:100dc800022483f837401a4cc3f880404ff400449b
:100dd800c3f8904083f8cc1083f8cd1083f8cf2067
:100de80083f8d02083f8d12083f8d22083f8d32049
:100df80083f8d41083f8d51083f8d62083f8d72049
:100e080083f8d82083f8de2083f8df2083f8b60043
:100e180083f8ba004ff40011c3f8001183f8552184
:100e28005df8044b704700bf008000410080200837
:040e38000080cfc1a6
:020000040000fa
:100e3c0008b51b4b98471b4b9847eff3108172b6c4
:100e4c00194ad2f8883043f47003c2f88830bff3e3
:100e5c004f8fbff36f8f01b962b6144c20236360c0
:100e6c0000f074f8124b23f07f030f4a9360114b80
:100e7c009847a36823f00103a3602346da6812f0b5
:100e8c00010ffbd1094b5a6842f004025a6001224f
:100e9c009a60094b9847094b984700f0d5fbfee741
:100eac006f1a00006f1a000000ed00e000600041b6
:100ebc0000000000c91200006f1a00006f1a000039
:020000040000fa
:100ecc002de9ff41836946690093f61acde901616a
:100edc0004461746039216444ff002086d464246ec
:100eec002946206800f0c5fcb04209d1d4e9023291
:100efc00c4e905331a44a262384604b0bde8f08157
:100f0c0000280dda6268002342f01002b8f1020fdb
:100f1c00a362c4e90533626015d06b68ff1aebe776
:100f2c006b68984288bf0835a6eb000688bfc01acc
:100f3c002b6803442b606b68a3eb000088bf08f19f
:0a0f4c00ff386860cbe71f46d6e7c8
:020000040000fa
:020f56007047e2
:020000040000fa
:100f58001e4b1f4a9342f0b438bf002103d203f856
:100f6800011b9342fbd11b4ad2e9000150ea01035d
:100f78004ff0000610d09468034602f10c076cb9d4
:100f880021b1014403f8016b9942fbd13a46d2e9f9
:100f9800000150ea0103eed1f0bc704759b101f1ec
:100fa8000c030c38801a1a443b461c1813f8015bd2
:100fb80025709342f9d111f0030318bf012303eb05
:100fc800910107eb81073a46e1e700bf00000020e6
:080fd80000000020800200006f
:020000040000fa
:100fe0001b4ad36823f4e0631b041b0c43f0bf636c
:100ff00043f40033d360bff35f8f62b6154be0223a
:1010000083f836234ff48001596083f837234ff477
:101010000001596083f838234ff08071596083f8dc
:1010200039234ff00071596083f83e234ff080411f
:10103000596083f83f234ff00041596083f8402303
:101040000121996083f8412302229a60704700bf12
:0810500000ed00e000e100e00a
:020000040000fa
:10105800f8b5846a05460f46164654b1ab6a6a6904
:101068009b1ab3420bd2324639462846fff72aff6d
:10107800f8bd00f07bfc0028f0d02046f8e7002ef1
:10108800f1d095f93430002b1bdbdbb23446621efd
:10109800b95c994212d1224639462846fff712ff19
:1010a800a042e5d32744341b22463946686900f03c
:1010b80075fc6b691c446c613046d9e71446002afc
:0610c800e5d13446f0e71b
:020000040000fa
:0210ce00fee73b
:020000040000fa
:1010d00010b500f08ffc00b910bd00f021fce0b9a4
:1010e000104c0121204600f04bf923780a2b08d040
:1010f0000d2b06d00c490a88501c08800b498b54d4
:10110000eae7094c2188094800f0def90321084884
:1011100000f0daf900232380dee72721054800f0fc
:10112000d3f9d9e7180a0020060800201406002089
:08113000140a002090090020c0
:020000040000fa
:10113800184b4ff40042c3f894205a614ff4001240
:10114800c3f814214ff48032c3f894204ff40032ce
:10115800c3f894204ff48022c3f894204ff400225f
:10116800c3f894204ff48002c3f894204ff400028f
:10117800c3f894204ff08072c3f894204ff00062b7
:101188005a614ff08042c3f894204ff00042c3f8f0
:0811980098207047008000411f
:020000040000fa
:1011a0004ff0864301221a601a46d369002bfcd106
:1011b0004ff086434ff480725a601a46d369002b71
:1011c000fcd14ff08643ff22da600c4a1a601a46bf
:1011d000d369002bfcd14ff0864310225a831a4664
:1011e000d369002bfcd1064b002283f8212083f821
:1011f00020204ff0864383229a7570471600100016
:041200003809002089
:020000040000fa
:1012040037b50d46044610b9002003b030bd43681d
:101214009b0607d5d0e905239a4219d80023c4e9cf
:101224000533a362d4e90f239a4206d2d21a0123ca
:1012340000932068d31700f011fc0023c4e90f3396
:10124400002de1d0206803b0bde8304000f0fcbbc5
:101254000022c36a114698476369002bded14ff020
:04126400ff30d2e79e
:020000040000fa
:101268007fb5c36800911546002b18bf013a01925b
:1012780082680446cde902230e46022269460068c8
:1012880000f0cdfa002808dc00f0180383f008020b
:1012980063681343636005460fe0019a8242fad2fd
:1012a800a368e363801ae268184420642ab15a1cd0
:1012b800e2632e441b7806f8013c284604b070bd52
:020000040000fa
:1012c8000e4a38b5002313600d4a0e4c13600e4abf
:1012d8000e4d13600e4a13600e4a13600e4a536295
:1012e80013610123936000f091fb00f0bdfbac4259
:1012f80000d338bd54f8043b9847f8e7080a0020a3
:10130800f40800206c020000f008002070020000c1
:0c131800e8080020ec080020f808002085
:020000040000fa
:101324002021222324242525262627272828282867
:10133400292929292a2a2a2a2b2b2b2b2c2c2c2c01
:101344002c2c2c2c2d2d2d2d2d2d2d2d2e2e2e2ec9
:101354002e2e2e2e2f2f2f2f2f2f2f2f000117023f
:101364001d1813031e1b190b1408040d1f161c1241
:0c1374001a0a070c1511090610050f0ecf
:020000040000fa
:1013800028b338b50d46044600f006faedb1002149
:10139000104a137e13f0040ffbd0538b13f0070f8a
:1013a0000ed1536803f00703012b936a1dbf20463b
:1013b00000f8013b044624f8023b01318d42e8d19c
:1013c0008d4214bf0020012038bd2946f8e70020d7
:0813d000704700bf004001411d
:020000040000fa
:1013d80070b5d0e90245a54217d10122a1f1200339
:1013e800c1f1200622fa06f602fa03f333438a40d3
:1013f800db43d6431ab10b490a6832400a605a1ccb
:101408001fbf084a51680b4053604368ac6043f003
:10141800010223f00103e5604260c25842f0010274
:08142800c25070bd0804002051
:020000040000fa
:10143000114b00229a61da614ff0864383221a76bb
:101440005a6822f480225a601a46d369002bfcd1d4
:1014500069b1094b032283f8202041ea40014ff093
:10146000864359621a46d369002bfcd17047024b60
:0c147000042283f82020f0e73809002057
:020000040000fa
:10147c00022a70b5044616461d461ad043689b06d0
:10148c0017d441b9002d08bf4ff4806505f1080051
:10149c00fff78ef901466368012e43f02003636069
:1014ac00c4e9021514bfff230a2384f83430024b1d
:0c14bc00e362002070bd00bf591000006a
:020000040000fa
:1014c800e0b110b40446d9b10e4a03e034f8023b47
:1014d800936279b10139137e13f0010ffbd0536881
:1014e80003f00703012bf1d0204610f8013b93626b
:1014f8000446eee701205df8044b70470020704772
:081508000120f8e70040014159
:020000040000fa
:1015100008b500f067fa0e4b1b680021186800f050
:1015200071fa0c4b1b680021186800f06bfafff78a
:1015300033fcfff7d3fa00f015f900f06df8fff770
:101540000afdfff72dfe00f0bff8fff749fd08bdcb
:081550000c080020d409002062
:020000040000fa
:1015580010b5054c237833b9044b13b10448aff3e5
:1015680000800123237010bdd8090020000000006e
:101578000000000008b5034b1bb103490348aff353
:10158800008008bd00000000dc0900200000000009
:020000040000fa
:101598000c4a036810b5546a0b4a591e121b8a423a
:1015a8000ad22bb1094b0c221a604ff0ff3010bd44
:1015b800102202600020fae7173323f00f030360bc
:1015c800f8e700bff8080020efffff7f0c0a0020b3
:020000040000fa
:1015d80070b5b9b115460ab1022801d9284670bdbf
:1015e8000a4b2bb108461146aff30080284670bd60
:1015f8000c468e1814f8010b00f09cf9b442f9d18e
:10160800284670bd0d46284670bd00bf000000008a
:020000040000fa
:101618000b4b00221a621a779a60da60094b4ff472
:1016280000525a601a46d369002bfcd1054b2b2275
:101638001a73054a1a601a46d369002bfcd1704701
:0c16480064090020002001410e00200079
:020000040000fa
:1016540008b50020fff75afffff7dcff00f080f821
:10166400fff79cfdfff766fd03210648fff72afffd
:10167400f2210548fff726fffff728fdfff734fbab
:0c168400fae700bf140a00201407002041
:020000040000fa
:1016900000090138202813d9b0f5007f05d2094b85
:1016a00003ebd00010f8040c7047b0f5e05f06d8eb
:1016b000044b03ebd01010f8040c103070473f209f
:0816c000704700bf2413000075
:020000040000fa
:1016c8000b4a137843f001031370536813f0010faa
:1016d800fbd1074b0022da611a621a7842f0020243
:1016e8001a701a46536813f0020ffbd1704700bff7
:0416f8000028004086
:020000040000fa
:1016fc000b4b93f820305bb20bb10020704710b548
:10170c000c46074b98800021d96059619c601a6186
:10171c009970197083f82110fff784fe012010bd19
:04172c003809002058
:020000040000fa
:1017300010b50b4c94f8204064b20cb1002010bde1
:10174000074ca080e360029b6361a16022610021dd
:10175000a170217084f82110fff76afe0120eee7e6
:041760003809002024
:020000040000fa
:101764000a4b0b4a1a604ff622029a814ff4403218
:101774005a601a46d369002bfcd1044a136843f01b
:1017840002031360d369002bfcd170470040014170
:0417940004011040fc
:020000040000fa
:101798000a4b5b8b13f0070f0ed0084b80221a768a
:1017a80007225a831b7e13f0040f05d0034b9a6a55
:1017b8001a7e12f0040ffad1704700bf00400141b1
:020000040000fa
:1017c80070b505462c68e30701d500200fe02046d8
:1017d800fff75aff064600f08ff82868a042f1d1bb
:1017e80020f00100281a3146fff7f2fd012070bdf4
:020000040000fa
:1017f800426822f00102531a102b30b40dd9441854
:1018080041f0010543f00103455063608350456092
:0e18180004f1080030bcfff7e9b930bc70479e
:020000040000fa
:101826002de9f0410024804617460d462646be4265
:1018360005f1080502db2046bde8f08155e90212f4
:0c184600404600f0fcf801360444f0e7d6
:020000040000fa
:1018520070b505466c68e30701d500200de020460f
:10186200fff715ff064600f04af86b68a342f1d174
:0c18720028463146fff7affd012070bd95
:020000040000fa
:10187e002de9f0410024804617460d462646be420d
:10188e0005f1080502db2046bde8f08155e902129c
:0c189e004046fff79afe01360444f0e7d4
:020000040000fa
:0218aa00fee757
:020000040000fa
:1018ac00074a136843b10749184488428cbf4ff06c
:1018bc00ff33106018467047034b1360f3e700bf0b
:0c18cc00100a0020200c0020200a002040
:020000040000fa
:1018d80090f948305a1e1343426880f8483012f095
:1018e80004031bbf42f010024260c0e90f334ff0ff
:0818f800ff3008bf18467047dd
:020000040000fa
:10190000064b013053f830203ab9c100a1f108026a
:101910001a44194443f830204a60704708040020f4
:020000040000fa
:1019200010b5054b588b10f0070401d1204610bdaf
:0c193000fff732fffae700bf0040014162
:020000040000fa
:10193c0010b582b08df80700012421460df1070087
:0c194c00fff7bcfd0028f8d002b010bd71
:020000040000fa
:1019580010b5044600f068f818b90cb101232370db
:0c19680010bd002cfcd002232370f9e716
:020000040000fa
:1019740010b50446fff7aeff28b9a368e268c4e9ce
:0819840005331344a36210bdfa
:020000040000fa
:10198c0010f5805f81bf034b404218604ff0ff3071
:08199c00704700bf0c0a002097
:020000040000fa
:1019a40010b5431e0a44914200d110bd11f8014bf9
:0619b40003f8014ff7e704
:020000040000fa
:1019ba000068002808b501da002008bdfff771ffaa
:0619ca00431cfad1f8e70e
:020000040000fa
:1019d00008b500f033f8024b1860586008bd00bf2e
:0419e000f4090020e6
:020000040000fa
:1019e400024b40f204521a80704700bf004000418d
:020000040000fa
:1019f400024b187ec0f38000704700bf00400141d5
:020000040000fa
:101a040000294ff480630cbf02220022fff734bd8b
:020000040000fa
:101a140008b5fff7dbff00f02af800f028f808bd4e
:020000040000fa
:0c1a2400014b586299627047380900209d
:020000040000fa
:0c1a3000014b93f821007047380900209a
:020000040000fa
:081a3c000048704780080020fb
:020000040000fa
:081a44006ff00800fff7a0bfde
:020000040000fa
:081a4c004ff0ff30704700bfae
:020000040000fa
:061a540000200021704794
:020000040000fa
:061a5a000068fff7bcbdaf
:020000040000fa
:041a600000207047ab
:020000040000fa
:021a6400fee79b
:020000040000fa
:021a6600fee799
:020000040000fa
:021a6800fee797
:020000040000fa
:021a6a00fee795
:020000040000fa
:021a6c00fee793
:020000040000fa
:021a6e007047bf
:020000040000fa
:061a70007047704770474b
:020000040000fa
:0200000400807a
:044000003912003c35
:020000040000fa
:0200000400807a
:044004008000a82a66
:020000040000fa
:0200000400807a
:04400800ffffffffb8
:00000001FF
