:020000040000fa
:10000000f0ff02202d0b0000f31300008714000006
:10001000ab150000ad150000af150000000000009a
:100020000000000000000000000000000b0e0000b7
:10003000a9150000000000000b0e00000b0e0000d0
:100040000b0e00000b0e00000b0e00000b0e00004c
:100050000b0e00000b0e00000b0e00000b0e00003c
:100060000b0e00000b0e00000b0e00000b0e00002c
:100070000b0e00000b0e00000b0e00000b0e00001c
:100080000b0e00000b0e00000b0e00000b0e00000c
:100090000b0e00000b0e00000b0e00000b0e0000fc
:1000a0000b0e00000b0e00000b0e00000b0e0000ec
:1000b0000b0e00000b0e00000b0e00000b0e0000dc
:1000c0000b0e00000b0e00000b0e00000b0e0000cc
:1000d0000b0e00000b0e00000b0e00000b0e0000bc
:1000e0000b0e00000b0e00000000000000000000de
:1000f000000000000b0e00000b0e00000b0e0000b5
:100100000b0e00000b0e00000b0e00000b0e00008b
:100110000b0e00000b0e000021060000210600005f
:1001200021060000210600000b0e00000b0e00004f
:100130000b0e00000b0e00000b0e00000b0e00005b
:100140000b0e00000b0e00000b0e00000b0e00004b
:100150000b0e00000b0e00000b0e00000b0e00003b
:100160000b0e00000b0e00000b0e00000b0e00002b
:100170000b0e00000b0e00000b0e00000b0e00001b
:100180000b0e00000b0e00000b0e00000b0e00000b
:10019000000000000b0e00000b0e00000b0e000014
:1001a0000b0e00000b0e00000b0e00000b0e0000eb
:1001b0000b0e00000b0e00000b0e00000b0e0000db
:1001c0000b0e00000b0e00000b0e00000b0e0000cb
:1001d0000b0e00000b0e00000b0e00000b0e0000bb
:1001e0000b0e00000b0e00000b0e00000b0e0000ab
:1001f0000b0e00000b0e00000b0e00000b0e00009b
:100200000b0e00000b0e00000b0e00000b0e00008a
:100210000b0e00000b0e00000b0e00000b0e00007a
:100220000b0e00000b0e00000b0e00000b0e00006a
:100230000b0e00000b0e00000b0e00000b0e00005a
:100240000b0e00000b0e00000b0e00000b0e00004a
:100250000b0e00000b0e00000b0e00000b0e00003a
:020000040000fa
:10026000f8b500bff8bc08bc9e4670476911000095
:10027000f8b500bff8bc08bc9e46704745110000a9
:020000040000fa
:10028000940800201c00000000000000c7080020a7
:100290000100000000000000480800202c000000c1
:1002a00000000000ca08002001000000000000005b
:1002b000140600200001000000000000c808002013
:1002c0000200000000000000c4080020030000003d
:1002d000010000000d0a00001407002004000000c7
:1002e00000000000f807002050000000000000009f
:1002f00018070020780000000100000028070020f7
:100300002007002028070020000000000000000057
:10031000250000000800002000040000000000008c
:1003200000000000000000000000000000000000cd
:10033000000000000000000000000000991500000f
:1003400000000000000000000000000000000000ad
:10035000ab0d0000000000000000000000000000e5
:10036000000000000000000000000000000000008d
:100370000000000000000020080400000000000051
:1003800074080020200000000100000001000000af
:10039000030000000000000000000000000000005a
:1003a0000000000000000000b0080020b00800209d
:1003b0000800000000000000b80800200400000051
:1003c00000000000080400200c02000000000000f3
:1003d00090070020680000000100000001000000fc
:1003e000030000000000000000000000000000000a
:1003f0000000000000000000470d000000000000a9
:1004000000000000000000009f150000b71500006c
:1004100000000000000000000000000000000000dc
:1004200000000000000000000000000000000000cc
:1004300000000000000000000000000000000000bc
:1004400000000000bc0800200400000000000000c4
:10045000c0080020040000000000000000000000b0
:1004600000000000222222222222222222222222f4
:020000040000fa
:100470002de9f04f87b0039003a800f083fe002819
:1004800003da002007b0bde8f08f039b1b095d1e57
:10049000202d0fd9023b5e4ab3f5007f35bf02eb3a
:1004a000d30302ebd31313f8045c13f8045c34bfda
:1004b000013511350123a5f12001c5f1200203fa10
:1004c00001f923fa02f203fa05f8d8f1000849ea23
:1004d000020969eb4909cde90089dff84081dff8bd
:1004e00030914746d8e90023009902ea010a0199b0
:1004f00003ea010b5aea0b0342d1039b05a8103310
:10050000059301f000f818b9424b0c221a60b9e7c4
:10051000d8f80852a84206d0059b103b059301234a
:1005200000f110058360059bea18012143f00103e7
:10053000b5f1080442f8083c42f8041cc7f8082248
:1005400045f8043c9dd0204600f0e2fe88b155f805
:10055000083c55f8041c23f00103e31a5a6822f002
:1005600001020a445a6055f8041c21f0010162504e
:100570001c462046039900f0e3fe04f1080081e7e1
:100580005446254bbaf1000f34d1cbf1000000eafc
:100590000b00434309ebd36393f83c6020363046ad
:1005a00000f052ff731c57f8334007ebc303083bbe
:1005b0009c4297d0272e26dd0235ae4201dc3f2e2d
:1005c00021d16268039922f00102551a284600f0f1
:1005d00037fe864217d1e068a6686318d8609e602f
:1005e00083609868c36041f0010060505d60a55071
:1005f0006060bee7caf100002040434309ebd363cb
:1006000093f83c60cbe73146204600f0b5fcb0e7fc
:10061000c40e0000bc08002029e66b070804002077
:020000040000fa
:10062000584b9b7d002b00f0ab8010b5554a5368aa
:1006300003f00703127e12f0040f5bd0514a906a58
:10064000514a5169d268914254d2002b43d14e4b4a
:100650005a684c1c5c6150544a4b1b7e13f0010fce
:1006600018d0484b01221a75474b9a699b689a42e9
:1006700058d2454b1968501c98618a5c414b9a626c
:10068000414b9a699b689a4261d03f4b5a69db683b
:100690009a4269d03b4b1b7e13f0020f14d03b4ba8
:1006a0001b78bbb1384b5a69db689a420fd1364b85
:1006b00000221a7733490720087534490a701b6aeb
:1006c00043b1314a506a9847304b1b7813b12d4bd8
:1006d00002229a7510bd2c4b5a684c1c5c6122f8a2
:1006e0001100284b1b7e13f0010fd3d0254b0122a4
:1006f0001a7509e0234a127e12f0010fcad0214a6e
:1007000001211175002bafd01f4b9a699b689a424b
:1007100012d21d4b1968501c986131f81220194be8
:100720009a62ade7184b1b6923b3164aff21916209
:10073000013b154a1361a3e7134b1b69d3b1114a5f
:100740004ff6ff719162013b0f4a136198e70e4b20
:100750001b69002b99d10d4b01221a70094b1b7e8e
:1007600013f0020f9ed1b2e7064b01229a750422c4
:100770001a758fe7044b9a699b689a4285d1eae71c
:10078000704700bf0020014148080020c708002032
:020000040000fa
:100790003d4b00221a7403f500633c4a9a621a46e4
:1007a000536813f0100ffbd1394b4222c3f8842059
:1007b0001a46d2f8843013f0400ffad0354b00229d
:1007c0009a6377225a631a46d36b13f0040ffbd156
:1007d000304b022283f830201a46d36b13f0020ffd
:1007e000fbd12c4a136c03f00303032bfad12a4be1
:1007f00001225a711a46d37813f0010ffbd0244b13
:10080000264a1a621a46536813f0040ffbd1204b94
:10081000234a5a621a46536813f0080ffbd11c4b47
:100820004122c3f890201a46d2f8903013f0400fbe
:10083000fad0174b4122c3f8dc201a46d2f8dc303c
:1008400013f0400ffad0124b4122c3f8e0201a46b1
:10085000d2f8e03013f0400ffad00d4b4222c3f82b
:1008600008211a46d2f8083113f0400ffad00a4b8b
:100870006ff07f421a6140f2ff725a61094a9a6131
:1008800001221a62704700bf0014004006013000c8
:10089000001c00400010004000080040070101005b
:0808a000070102005686010069
:020000040000fa
:1008a8002de9f84300286ad050f8043ca0f1080468
:1008b80023f00106a719a259934200d0ffde7a68f7
:1008c80023681340da070fd4204600f01dfd0028e6
:1008d80057d1384600f05dfd0028f0d07b6823f042
:1008e80001031e441f44eae746f0010363603046f3
:1008f8003b6000f0a1fc054600f0a2fd23687a6881
:100908001340db07e0d5dff88ce0dee90089c5f1ac
:10091800200ca5f1200228fa05f009fa0cfc29faa6
:1009280002f240ea0c001043012100ea0102002310
:100938001343c5f120007346a5f1200212d121fa14
:1009480000f001fa02f2a94042ea00021ebfdef8f6
:1009580000000143cef8001022b1def804100a436b
:10096800cef80420681c03ebc003a3f108026660fc
:100978003e60a2605a68e2605c60e3689c60bde823
:10098800f883236823f00103e41a636823f0010362
:080998001e449ee70804002044
:020000040000fa
:1009a00010b4324b324a1a604ff002621a610121d0
:1009b00083f84c1083f84d1083f84e10002283f812
:1009c0004f2083f8512083f8522083f8532083f876
:1009d000552083f85b20222083f83600022483f818
:1009e0003740244cc3f880404ff43044c3f8904063
:1009f000452483f8cc4083f8cd4083f8cf2083f89a
:100a0000d02083f8d12083f8d22083f8d32083f834
:100a1000d41083f8d51083f8d62083f8d72083f834
:100a2000d82083f8de2083f8df2083f8b60083f82f
:100a3000ba001149c3f8001183f84a2183f84b2109
:100a400083f84c2183f84d2183f84e2183f84f2100
:100a500083f8502183f8512183f8522183f85321e0
:100a600083f855215df8044b704700bf00800041ba
:0c0a700000802e080080cfc100fc2f0089
:020000040000fa
:100a7c0070b42a4b4ff40044c3f894405c614ff4bb
:100a8c000012c3f814214ff48035c3f894504ff47e
:100a9c000031c3f894104ff48022c3f894204ff423
:100aac000020c3f894004ff48006c3f894604ff410
:100abc000006c3f894604ff08076c3f894604ff052
:100acc0000665e614ff08046c3f894604ff00046bc
:100adc00c3f898604ff40066c3f814614ff4805665
:100aec00c3f81461c3f814414ff48044c3f81441a3
:100afc005861c3f81451c3f81401c3f814214ff40e
:100b0c000050c3f81401c3f8141159614ff48061fb
:100b1c00c3f814115a6170bc704700bf00800041cb
:020000040000fa
:100b2c0008b51b4b98471b4b9847eff3108172b6d7
:100b3c00194ad2f8883043f47003c2f88830bff3f6
:100b4c004f8fbff36f8f01b962b6144c20236360d3
:100b5c0000f074f8124b23f07f030f4a9360114b93
:100b6c009847a36823f00103a3602346da6812f0c8
:100b7c00010ffbd1094b5a6842f004025a60012262
:100b8c009a60094b9847094b984700f067fcfee7c1
:100b9c00b1150000b115000000ed00e0006000414f
:100bac0000000000690e0000b1150000b115000036
:020000040000fa
:100bbc002de9ff41836946690093f61acde901617d
:100bcc0004461746039216444ff002086d464246ff
:100bdc002946206800f0f1fbb04209d1d4e9023279
:100bec00c4e905331a44a262384604b0bde8f0816a
:100bfc0000280dda6268002342f01002b8f1020fef
:100c0c00a362c4e90533626015d06b68ff1aebe789
:100c1c006b68984288bf0835a6eb000688bfc01adf
:100c2c002b6803442b606b68a3eb000088bf08f1b2
:0a0c3c00ff386860cbe71f46d6e7db
:020000040000fa
:020c46007047f5
:020000040000fa
:100c48001e4b1f4a9342f0b438bf002103d203f869
:100c5800011b9342fbd11b4ad2e9000150ea010370
:100c68004ff0000610d09468034602f10c076cb9e7
:100c780021b1014403f8016b9942fbd13a46d2e90c
:100c8800000150ea0103eed1f0bc704759b101f1ff
:100c98000c030c38801a1a443b461c1813f8015be5
:100ca80025709342f9d111f0030318bf012303eb18
:100cb800910107eb81073a46e1e700bf00000020f9
:080cc800000000208002000082
:020000040000fa
:100cd000f8b5846a05460f46164654b1ab6a6a6990
:100ce0009b1ab3420bd2324639462846fff766ffbd
:100cf000f8bd00f0e5fb0028f0d02046f8e7002e14
:100d0000f1d095f93430002b1bdbdbb23446621e88
:100d1000b95c994212d1224639462846fff74eff68
:100d2000a042e5d32744341b22463946686900f0c7
:100d3000dffb6b691c446c613046d9e71446002a1e
:060d4000e5d13446f0e7a6
:020000040000fa
:100d460037b50d46044610b9002003b030bd4368e0
:100d56009b0607d5d0e905239a4219d80023c4e992
:100d66000533a362d4e90f239a4206d2d21a01238d
:100d760000932068d31700f012fc0023c4e90f3358
:100d8600002de1d0206803b0bde8304000f0fdbb87
:100d96000022c36a114698476369002bded14ff0e3
:040da600ff30d2e761
:020000040000fa
:100daa007fb5c36800911546002b18bf013a01921e
:100dba0082680446cde902230e460222694600688b
:100dca0000f0d0fa002808dc00f0180383f00802cb
:100dda0063681343636005460fe0019a8242fad2c0
:100dea00a368e363801ae268184420642ab15a1c93
:100dfa00e2632e441b7806f8013c284604b070bd15
:020000040000fa
:020e0a00fee701
:020000040000fa
:100e0c0010b500f09ffb00b910bd00f037fb0028b7
:100e1c00fad10e4c0121204600f07cf823780a2be5
:100e2c0008d00d2b06d00a490a88501c08800949a5
:100e3c008b54e9e7064c2188064800f013f903218e
:100e4c00054800f00ff900232380dde7ca080020d5
:0c0e5c00c808002014060020c408002074
:020000040000fa
:100e68000e4a38b5002313600d4a0e4c13600e4a23
:100e78000e4d13600e4a13600e4a13600e4a5362f9
:100e880013610123936000f06ffb00f08efbac420e
:100e980000d338bd54f8043b9847f8e7b808002059
:100ea800040800206c020000000800207002000006
:0c0eb800f8070020fc07002008080020bc
:020000040000fa
:100ec40020212223242425252626272728282828cc
:100ed400292929292a2a2a2a2b2b2b2b2c2c2c2c66
:100ee4002c2c2c2c2d2d2d2d2d2d2d2d2e2e2e2e2e
:100ef4002e2e2e2e2f2f2f2f2f2f2f2f00011702a4
:100f04001d1813031e1b190b1408040d1f161c12a5
:0c0f14001a0a070c1511090610050f0e33
:020000040000fa
:100f200028b338b50d46044600f0daf9edb10021da
:100f3000104a137e13f0040ffbd0538b13f0070fee
:100f40000ed1536803f00703012b936a1dbf20469f
:100f500000f8013b044624f8023b01318d42e8d100
:100f60008d4214bf0020012038bd2946f8e700203b
:080f7000704700bf0040014181
:020000040000fa
:100f780070b5d0e90245a54217d10122a1f120039d
:100f8800c1f1200622fa06f602fa03f333438a4037
:100f9800db43d6431ab10b490a6832400a605a1c2f
:100fa8001fbf084a51680b4053604368ac6043f068
:100fb800010223f00103e5604260c25842f00102d9
:080fc800c25070bd08040020b6
:020000040000fa
:100fd000124ad36823f4e0631b041b0c43f0bf6385
:100fe00043f40033d360bff35f8f62b60c4be02253
:100ff00083f836234ff48001596083f837234ff488
:101000000001596083f838234ff08071596083f8ec
:1010100039234ff000725a60704700bf00ed00e0c6
:0410200000e100e00b
:020000040000fa
:10102400022a70b5044616461d461ad043689b062c
:1010340017d441b9002d08bf4ff4806505f10800ad
:10104400fff714fa01466368012e43f0200363603e
:10105400c4e9021514bfff230a2384f83430024b79
:0c106400e362002070bd00bfd10c000052
:020000040000fa
:10107000e0b110b40446d9b10e4a03e034f8023ba3
:10108000936279b10139137e13f0010ffbd05368dd
:1010900003f00703012bf1d0204610f8013b9362c7
:1010a0000446eee701205df8044b704700207047ce
:0810b0000120f8e700400141b6
:020000040000fa
:1010b80008b500f039fa0e4b1b680021186800f0db
:1010c8004bfa0c4b1b680021186800f045fafff733
:1010d80063fcfff759fb00f0e5f800f08ff8fff725
:1010e800aefd00f009f800f0c3f8fff76dff08bd8a
:0810f8001c07002090080020f5
:020000040000fa
:101100004ff0864301221a601a46d369002bfcd1a6
:101110004ff086430a4a1a601a46d369002bfcd165
:101120004ff0864301229a60e0225a621a6842f028
:1011300002021a601a46d369002bfcd1704700bf27
:04114000100020007b
:020000040000fa
:1011440010b5054c237833b9044b13b10448aff3fd
:1011540000800123237010bd9408002000000000cb
:101164000000000008b5034b1bb103490348aff36b
:10117400008008bd00000000980800200000000066
:020000040000fa
:101184000c4a036810b5546a0b4a591e121b8a4252
:101194000ad22bb1094b0c221a604ff0ff3010bd5c
:1011a400102202600020fae7173323f00f030360d4
:1011b400f8e700bf08080020efffff7fbc0800200d
:020000040000fa
:1011c40070b5b9b115460ab1022801d9284670bdd7
:1011d4000a4b2bb108461146aff30080284670bd78
:1011e4000c468e1814f8010b00f05af9b442f9d1e8
:1011f400284670bd0d46284670bd00bf00000000a3
:020000040000fa
:101204000b4b00221a621a779a60da60094b4ff48a
:1012140000525a601a46d369002bfcd1054b2b228d
:101224001a73054a1a601a46d369002bfcd1704719
:0c12340048080020002001410e002000ae
:020000040000fa
:1012400000090138202813d9b0f5007f05d2094bd9
:1012500003ebd00010f8040c7047b0f5e05f06d83f
:10126000044b03ebd01010f8040c103070473f20f3
:08127000704700bfc40e00002e
:020000040000fa
:101278000b4a137843f001031370536813f0010ffe
:10128800fbd1074b0022da611a621a7842f0020297
:101298001a701a46536813f0020ffbd1704700bf4b
:0412a80000280040da
:020000040000fa
:1012ac000a4b0b4a1a604ff622029a814ff44032d5
:1012bc005a601a46d369002bfcd1044a136843f0d8
:1012cc0002031360d369002bfcd17047004001412d
:0412dc0004011040b9
:020000040000fa
:1012e0000a4b5b8b13f0070f0ed0084b80221a7647
:1012f00007225a831b7e13f0040f05d0034b9a6a12
:101300001a7e12f0040ffad1704700bf004001416d
:020000040000fa
:1013100070b505462c68e30701d500200fe0204694
:10132000fff78eff064600f08ff82868a042f1d143
:1013300020f00100281a3146fff71efe012070bd83
:020000040000fa
:10134000426822f00102531a102b30b40dd9441810
:1013500041f0010543f0010345506360835045604f
:0e13600004f1080030bcfff79fba30bc7047a4
:020000040000fa
:10136e002de9f0410024804617460d462646be4222
:10137e0005f1080502db2046bde8f08155e90212b1
:0c138e00404600f0faf801360444f0e795
:020000040000fa
:10139a0070b505466c68e30701d500200de02046cc
:1013aa00fff749ff064600f04af86b68a342f1d1fd
:0c13ba0028463146fff7dbfd012070bd26
:020000040000fa
:1013c6002de9f0410024804617460d462646be42ca
:1013d60005f1080502db2046bde8f08155e9021259
:0c13e6004046fff7ecfe01360444f0e73f
:020000040000fa
:0213f200fee714
:020000040000fa
:1013f400074a136843b10749184488428cbf4ff029
:10140400ff33106018467047034b1360f3e700bfc7
:0c141400c0080020d00a0020d0080020f2
:020000040000fa
:1014200090f948305a1e1343426880f8483012f051
:1014300004031bbf42f010024260c0e90f334ff0bb
:08144000ff3008bf1846704799
:020000040000fa
:10144800064b013053f830203ab9c100a1f1080227
:101458001a44194443f830204a60704708040020b1
:020000040000fa
:1014680008b50020fff724fefff71cfffff702fb7b
:0e14780000f062f80028fbd0fff7c4fcfce790
:020000040000fa
:02148600fee77f
:020000040000fa
:1014880010b5054b588b10f0070401d1204610bd4c
:0c149800fff722fffae700bf004001410f
:020000040000fa
:1014a40010b582b08df80700012421460df1070024
:0c14b400fff7dcfd0028f8d002b010bdee
:020000040000fa
:1014c00010b50446fff7acff28b9a368e268c4e989
:0814d00005331344a36210bdb3
:020000040000fa
:1014d80010f5805f81bf034b404218604ff0ff302a
:0814e800704700bfbc080020a2
:020000040000fa
:1014f00010b5431e0a44914200d110bd11f8014bb2
:0615000003f8014ff7e7bc
:020000040000fa
:101506000068002808b501da002008bdfff76fff64
:06151600431cfad1f8e7c6
:020000040000fa
:10151c0008b500f02ff8024b1860586008bd00bfea
:04152c00b0080020e3
:020000040000fa
:10153000024b40f204521a80704700bf0040004145
:020000040000fa
:10154000024b187e00f00100704700bf00400141cf
:020000040000fa
:10155000024b187ec0f38000704700bf004001417d
:020000040000fa
:1015600000294ff480630cbf02220022fff75abd0e
:020000040000fa
:1015700008b5fff7d3ff00f01df800f01bf808bd19
:020000040000fa
:081580000048704790070020ad
:020000040000fa
:081588006ff00800fff7a4bf9b
:020000040000fa
:081590004ff0ff30704700bf6f
:020000040000fa
:0615980000200021704755
:020000040000fa
:06159e000068fff710be1b
:020000040000fa
:0415a400002070476c
:020000040000fa
:0215a800fee75c
:020000040000fa
:0215aa00fee75a
:020000040000fa
:0215ac00fee758
:020000040000fa
:0215ae00fee756
:020000040000fa
:0215b000704782
:020000040000fa
:0615b2007047704770470e
:020000040000fa
:0200000400807a
:044000003912003c35
:020000040000fa
:0200000400807a
:044004008000a82a66
:020000040000fa
:0200000400807a
:04400800ffffffffb8
:00000001FF
