:020000040000fa
:10000000f8ff0320797800005f4f00003b530000a9
:1000100057700000677700006f8500000000000047
:10002000000000000000000000000000219c000013
:100030006b5b00000000000061820000a9980000d6
:1000400033450000334500003345000033450000d0
:1000500033450000334500003345000033450000c0
:10006000334500003345000033450000059a000089
:1000700033450000334500003345000033450000a0
:100080003345000033450000334500003345000090
:100090003345000033450000334500003345000080
:1000a0003345000033450000334500003345000070
:1000b0003345000033450000334500003345000060
:1000c0003345000033450000334500003345000050
:1000d0003345000033450000334500003345000040
:1000e0003345000033450000000000000000000020
:1000f0000000000033450000334500003345000098
:10010000334500003345000033450000334500000f
:100110003345000033450000c5490000c5490000d3
:10012000c5490000c54900003345000033450000c3
:100130003345000033450000697300006973000017
:100140006973000069730000334500003345000007
:1001500033450000334500003345000033450000bf
:1001600033450000334500003345000033450000af
:10017000334500003345000033450000334500009f
:10018000334500003345000033450000334500008f
:1001900000000000334500003345000033450000f7
:1001a000334500003345000033450000334500006f
:1001b000334500003345000033450000334500005f
:1001c000334500003345000033450000334500004f
:1001d000334500003345000033450000334500003f
:1001e000334500003345000033450000334500002f
:1001f000334500003345000033450000334500001f
:10020000334500003345000033450000334500000e
:1002100033450000334500003345000033450000fe
:1002200033450000334500003345000033450000ee
:1002300033450000334500003345000033450000de
:1002400033450000334500003345000033450000ce
:1002500033450000334500003345000033450000be
:020000040000fa
:10026000f8b500bff8bc08bc9e467047d9900000a6
:10027000f8b500bff8bc08bc9e467047b5900000ba
:020000040000fa
:08028000ec2b0000010000005e
:020000040000fa
:100288002de9f04f97b011900d461746009311a82d
:1002980008f0c6f90028c0f29a83b54b53f820300d
:1002a8000bb100221a70b34b13f81020019203eb24
:1002b800400393f80190b04b002d08bf1d4610462f
:1002c8000af048f810f0010f40f0838310f0040f93
:1002d80040f084836b681593002b5dd0159a531eec
:1002e800b3f5004f62d30123159395f8018008f107
:1002f800ff33dbb2022b28bf4ff00108ae68731e34
:10030800b3f5004f55d206f00f03002b18bf4ff47a
:100318000076ec68b4f1807f4ed8631e2340002b32
:1003280018bf0024009bb3f5007fc0f05983002f4d
:1003380000f058832b78029300231493b9f1000f2f
:100348003cd0012300223946019809f051fa0028cf
:1003580040f04a8397f8ff2197f8fe3143ea0223d9
:100368001bb2864a934240f0418307eb091505f515
:10037800d775b9f1040f00f23b832b79002b00f0fd
:10038800398305f1080009f0c4fe039005f10c005b
:1003980009f0bffe149027e015aa0321019809f07f
:1003a80014f800289ad0012315939ee71a429ad18f
:1003b8009be74ff40076ace70024b3e714aa0121c9
:1003c800019809f002f8002840f01683029b13f008
:1003d800080f07d1149b3f2b60d93f3b14933f2351
:1003e800039301e000230393149b7f2b40f20683c1
:1003f800b4f5813f34bf640a8024029b13f00202e3
:100408000a924ed003f00103002b0cbf03230223f2
:100418000893c34609f0a4fb1090ddf850a04feafa
:100428001a3cc6f31613069303994a1c0c921344fc
:100438000593159b03f1ff3e5b4204934fea5a4331
:100448000d9301f120030b93cdf838800f96089e89
:100458000997032e00f0e882002c42d02546bafb0b
:10046800f5f340f6f572934250d902335b0003f27c
:10047800ff13590a059b01fb0b320eeb020304988c
:1004880003409b1ab3fbfbf00bfb1030002844d051
:10049800013b039802300790022041e000230393b8
:1004a800a2e7029b13f0010f00f0aa82022308932f
:1004b800afe72c46cde7324b9a4510d9314b9a1c01
:1004c80002252b460d99099f8b4206d86d0032f8fc
:1004d800023f002bf8d10997aae20997a8e2012563
:1004e800a6e2baf5805f0fd3274b9a1c0225042396
:1004f800099f634506d86d0032f8023f002bf8d1fa
:100508000997ace70997aae70125a8e703eb430396
:1005180001335b0803330126a9e70c9807900120f3
:10052800b3fbfbf30b440699039fd21b02eb0512a6
:100538009245c0f069824218aaeb02020bfb132213
:10054800b2fbf5f2032e21d0022e3cd14ff6f578fe
:1005580042452ad9002c40f065826d00402da8d96b
:100568000a9b002b40f06082802d1cd82c4670e737
:10057800acac0020ccb800204ca3000055aaffff6b
:10058800ffff01003ca300002ca300004ff6f57804
:10059800424518d8002c40f03982012d01d96c0849
:1005a80057e70e2316e20e2314e240f6f577ba4217
:1005b80000f2ed80002c40f02b826c00802c7ff63e
:1005c80048af0e2306e2ddf838800591044604930f
:1005d800334608960f9e0692099f012b40f0fa8039
:1005e80040f6f5739a4200f215824ff4007200212a
:1005f800384609f0dffed34b03cb386079601a88a0
:100608009b783a81bb720023fb7202233b737d7394
:10061800bc73c4f30723fb7387f810807e74c6f39a
:100628000726be74baf5803f80f0f28087f813a0e1
:10063800caf307233b75009b4fea5328109b53448a
:100648009a46f8237b753f233b7600237b76ff226f
:10065800ba76fb76039907f11c0009f053fe089b54
:10066800032b00f0db80514607f1270009f04afe12
:10067800049bbb75c3f30723fb75802387f82430dd
:10068800292387f8263007f12b06af4c0fccc7f883
:100698002b007160b260f3602288a3783282b37451
:1006a800552387f8fe31aa2387f8ff310123039adf
:1006b8003946019808f0f6ff002840f0ad81009b0c
:1006c80023f4ff7222f001020021384609f072fe7d
:1006d800bbf1000f00f0c981089b012b9b4b18bf91
:1006e8006ff0070300934ff0000a0395079ecdf8bb
:1006f8001890089b032b00f013810099384609f0e5
:1007080001fe049d4ff000092c46454528bf44468c
:10071800234632463946019808f0c4ff002840f0c5
:100728007d814ff400724946384609f043fe26445d
:100738002d1be9d10af1010ad345dad8039d0796a2
:10074800ddf81890059b089a032a08bf2b461d461a
:10075800079e2c46454528bf44462346324639461f
:10076800019808f09fff002840f05a8126442d1b6d
:10077800efd1089a032a00f0f180149bb3f5803f6b
:1007880080f0fd80022a0cbf04240124e7e0ddf894
:10079800388005910446049308960f9e0692099f97
:1007a8004ff400720021384609f004fe654b03cb74
:1007b800386079601a889b783a81bb720023fb7293
:1007c80002233b737d73bc73c4f30723fb7387f861
:1007d800108023e74ff400720021384609f0eafd43
:1007e800584b03cb386079601a889b783a81bb7282
:1007f8000023fb7202233b737d73bc73c4f307238e
:10080800fb7387f81080089b032b08bf002605e7b9
:10081800514607f1200009f075fd0ce7514607f134
:10082800430009f06ffd049907f1240009f06afdff
:10083800022107f12c0009f065fd4ff0010c87f843
:1008480030c0002387f83130062287f8322087f835
:100858003330802387f84030292387f842303c4cd6
:100868000fccc7f84700c7f84b10c7f84f20c7f898
:1008780053302288a378a7f8572087f85930552392
:1008880087f8fe31aa2387f8ff316346039a394671
:10089800019808f007ff08b101239be00123039c9e
:1008a800a21d3946019e304608f0fcfe4ff4007246
:1008b8000021384609f07efd2649384609f022fd18
:1008c800254907f5f27009f01dfd069b591e07f52d
:1008d800f47009f017fd022107f5f67009f012fd12
:1008e800552387f8fe31aa2387f8ff310123e21d3b
:1008f8003946304608f0d6fe01230c9a3946304670
:1009080008f0d0fe009b23f4ff7222f001020021c0
:10091800384609f04ffdbbf1000f7ff4ddae11e75b
:100928006ff00701384609f0edfc4ff0ff31381d34
:1009380009f0e8fc6ff0704107f1080009f0e2fceb
:10094800dfe600bf3c8b00005c8b0000f8ffff0077
:10095800488b000052526141727241610c24b9f116
:10096800000f0ed1029b13f0080f22d0002211466f
:10097800019808f02afd031c18bf01232ae0062469
:10098800ede7012300223946019d284608f030ff93
:1009980008b101231ee007eb091989f8b2410123c8
:1009a80000223946284608f07dfe0028ded00123c3
:1009b80010e0149b1293002313933b46224612a97e
:1009c800019803f0b3fd03460028cfd002e00b23c3
:1009d80000e00323184617b0bde8f08f0a23f9e7b3
:1009e8001123f7e71123f5e70123f3e70e23f1e7d6
:1009f8000e23efe70e23ede70123ebe70e23e9e7ec
:100a08001323e7e70e23e5e70e23e3e70e23e1e7e9
:100a18000e23dfe70e23dde70123dbe70123d9e718
:100a28000123d7e70a9bf3b1002c3ff444ad2546d8
:100a3800bafbf5f2930003f207235b0aa2f57f42a3
:100a4800f63a0b498a42ddd80b9e03fb0b620eeb8c
:100a5800020104980140891a01f1200071180791d8
:100a68000021032660e50e23b4e7059d079e70e686
:040a7800fffffe0f6f
:020000040000fa
:100a7c002de9f04f85b00578303dedb290f801804e
:100a8c00a8f130035ffa83f98778a7f13006f6b244
:100a9c00032003f0dbfa0446022d17d0032d00f0df
:100aac004882012d05d0204605f0eafa05b0bde8d4
:100abc00f08f3423037080f801808770042108f0d4
:100acc006bfa0221c34808f067faece7012e15d047
:100adc0009f1ff330e2b00f22c82dfe813f0a90092
:100aec0036014f015a016501700183018e01a1018c
:100afc00ac01b201d801f6010102160209f1ff3373
:100b0c000e2b00f21682dfe803f0080b11171d23e1
:100b1c00292f393f456277828c0006f0a1f989e0d4
:100b2c00ad4b4ff48032c3f8982013e1aa4b4ff42d
:100b3c000032c3f8982026e1a74b4ff40022c3f8eb
:100b4c0098202be1a44b4ff48022c3f8982030e17d
:100b5c00a14b4ff48002c3f8982035e19e4b4ff423
:100b6c000002c3f8982042e19b4b4ff40012c3f8eb
:100b7c0018214ff40002c3f8982047e1964b4ff030
:100b8c008072c3f8982050e1934b4ff08042c3f829
:100b9c009820e4e0904b4ff400329a614ff40062dd
:100bac00c3f818214ff48052c3f818214ff40042b7
:100bbc00c3f818214ff48042c3f818214ff40052a7
:100bcc00c3f818214ff48062c3f8182155e1824b09
:100bdc004ff4803199614ff400229a61c3f81811d7
:100bec00c3f818214ff48022c3f818214ff40031b8
:100bfc00c3f818119a615ee1774b4ff00042c3f8cd
:100c0c0098204ff400429a61c3f89820a7e0724be9
:100c1c004ff00042c3f898204ff40042c3f89820dc
:100c2c006ee16d4b4ff400429a61c3f898207ae163
:100c3c0006f068f9204605f023fa0d2003f006fab9
:100c4c000446664d284609f0acfcc0f3004000f1a8
:100c5c00300a284609f0a5fcc0f3404000f13009e9
:100c6c00284609f09efcc0f3c04000f1300828462d
:100c7c0009f097fcc0f3804000f13007284609f0da
:100c8c0090fcc0f3805000f13006284609f089fc36
:100c9c00c0f3c05000f13005514809f082fc10f44b
:100cac00001f40f06f81002000f130030093dff84b
:100cbc002cb1584609f075fcc0f3006000f130030c
:100ccc000193584609f06dfcc00f00f130030293fc
:100cdc00abf1800b584609f064fcc0f3c03000f156
:100cec0030030393584609f05cfc10f4003f40f0cd
:100cfc004f814ff0000b0bf1300b374809f051fcd2
:100d0c0010f4803f40f0778100203623237084f864
:100d1c0001a084f8029084f8038027716671a57194
:100d2c00009be371019b2372029b6372039ba37272
:100d3c0084f80bb0303020730d21204608f02cf9cc
:100d4c000221244808f028f9ade6234b4ff48032f9
:100d5c00c3f89420214809f024fcc0f30046352345
:100d6c00237084f801803036a6700421204608f0e8
:100d7c0013f90221174808f00ff994e6164b4ff4bb
:100d8c000032c3f89420154809f00bfcc0f3404620
:100d9c00e5e7114b4ff40022c3f894200f4809f0fb
:100dac0000fcc0f3c046dae70b4b4ff48022c3f8cb
:100dbc0094200a4809f0f5fbc0f38046cfe7064bb8
:100dcc004ff48002c3f89420044809f0eafbc0f306
:100ddc008056c4e7c8a50000008000418080004117
:100dec0000810041c54b4ff40002c3f89420c44865
:100dfc0009f0d7fbc0f3c056b1e7c04b4ff400125b
:100e0c00c3f814214ff40002c3f89420bd4809f034
:100e1c00c8fb10f4001f40f01c810026f6b29ee7c0
:100e2c00b64b4ff08072c3f89420b54809f0b9fb6b
:100e3c00c0f3006693e7b14b4ff08042c3f89420a7
:100e4c008de7ae4b4ff400325a614ff40062c3f899
:100e5c0014214ff48052c3f814214ff40042c3f80c
:100e6c0014214ff48042c3f814214ff40052c3f8fc
:100e7c0014214ff48062c3f81421a04809f091fbaf
:100e8c0010f4003f40f0eb800026f6b267e79b4b76
:100e9c004ff4803159614ff400225a61c3f8141198
:100eac00c3f814214ff48022c3f814214ff40031fd
:100ebc00c3f814115a61914809f073fb10f4803f88
:100ecc0040f0fb800026f6b249e78c4b4ff0004215
:100edc00c3f894204ff400425a61c3f894203ee7c3
:100eec00864809f05efb10f4004f04d1834b4ff49d
:100efc000042c3f89420814b4ff00042c3f8942079
:100f0c007f4809f04efbc60f29e77d4809f049fbe5
:100f1c00002804db794b4ff40042c3f89420774b44
:100f2c004ff400425a61754809f03bfbc0f3c036e0
:100f3c0015e7b9f1010f3ff47daea9f102030d2bba
:100f4c003ff60daf01a252f823f000bf610d000077
:100f5c00930d0000a90d0000bf0d0000d50d000081
:100f6c00fb0d0000190e0000370e00006b0d000089
:100f7c00870e0000c30e00006b0d00000d0f00006b
:100f8c00330f00005e4809f00cfbc0f3c0508be639
:100f9c005c4809f006fb10f4006f02d14ff0000b17
:100fac00a9e6584809f0fdfa10f4805f02d14ff021
:100fbc00000ba0e6534809f0f4fa10f4004f02d1ec
:100fcc004ff0000b97e64f4809f0ebfa10f4804f06
:100fdc0002d14ff0000b8ee64a4809f0e2fa10f409
:100fec00005f02d14ff0000b85e6464809f0d9fab4
:100ffc00c0f3802b7fe6414809f0d3fa10f4002fa0
:10100c0001d1002081e63f4809f0cbfa10f4803f73
:10101c0001d1002079e63b4809f0c3fa10f4002f07
:10102c0001d1002071e6374809f0bbfa10f4802f8b
:10103c0001d1002069e6334809f0b3fa10f4003fff
:10104c0001d1002061e62d4809f0abfac0f38040d5
:10105c005be62b4809f0a5fac0f3c056dee629483a
:10106c0009f09ffa10f4006f01d100260de7254816
:10107c0009f097fa10f4805f01d1002605e72148aa
:10108c0009f08ffa10f4004f01d10026fde61d483f
:10109c0009f087fa10f4804f01d10026f5e61948c3
:1010ac0009f07ffa10f4005f01d10026ede6154837
:1010bc0009f077fac0f38026e7e6104809f071fad8
:1010cc0010f4002f01d10026fde60e4809f069fa54
:1010dc0010f4803f01d10026f5e60a4809f061fac8
:1010ec0010f4002f01d10026ede6064809f059fa5c
:1010fc0010f4802f08d10026e5e600bf00800041e7
:10110c008080004100810041064809f04afa10f441
:10111c00003f01d10026d6e6034809f042fac0f39d
:0c112c008046d0e60081004100800041b8
:020000040000fa
:101138002de9f8430446c0ebc0056d01a74e2e44c7
:101148004ff6ff71304608f05efe012839d1a44bf6
:101158005f1997f83d30032b30d8dfe803f002140d
:1011680027adc4ebc4059e4b03eb45150321b5f829
:10117800540005f003f8a865b0f1ff3f1ed0012325
:1011880085f83d301ae0c4ebc403954a02eb4313db
:10119800596e384608f0f8fc80b1c4ebc404904b93
:1011a80003eb4414022384f83d3007e0c4ebc40386
:1011b8008b4a02eb431393f84c3023b9304608f0be
:1011c80011ffbde8f883c4ebc40302eb431300220c
:1011d80083f84c20012183f83d10384609f056f970
:1011e8000028eed0c4ebc4037d4a02eb431393f806
:1011f8003e30032b2bd0042b40d003b30020c4eb8c
:10120800c405774b03eb451585f870000021384677
:1012180009f03cf995f8703095f871209a42cdd0d4
:1012280085f87130012b43d06d4be200111b03eba5
:101238004111002081f8730081f83e00bee7c4eb3d
:10124800c402674b03eb4213032283f83e200023ba
:10125800c4ebc402624901eb4212ff21d1540133ad
:101268000a2bfbd10a223946384608f01df908b97d
:101278000020c4e7384608f011fec0e70022042128
:10128800384603f005fd08b90020b8e714223946ae
:10129800384609f0f6f848b113223946514828442f
:1012a80008f06cfeb0fa80f04009a8e70020a6e735
:1012b800032285f83d2081e70121384609f0e6f848
:1012c80000283ff47eafc4ebc403454a02eb431346
:1012d80093f83f300b2b00f24482dfe813f00c0048
:1012e8001700320047009500cf0016012501a20122
:1012f80007021e023902c4ebc402394b03eb421346
:10130800002283f87420012283f83f200023c4ebd5
:10131800c402334901eb4212ff21d15401330a2b95
:10132800fbd10a223946384608f0bef8002800f0fa
:101338000881c4ebc4022a4b03eb4213022283f850
:101348003f20384608f0aafd40b9c4ebc402244b3c
:1013580003eb4213012283f83f20f2e0c4ebc402fe
:101368001f4b03eb4213032283f83f204ff4d5723f
:101378000221384603f08cfca8b197f89d3013f091
:10138800040f31d1c4ebc402154b03eb421393f89d
:101398009e30aa2b10d0c4ebc402114b03eb4213ae
:1013a800002283f85020c4ebc4020d4b03eb421318
:1013b8000c2283f83f20c4e0094ae02303fb0423fe
:1013c80093f89f3003f00f03012be4d1e02303fbd4
:1013d8000423012283f850200ee000bf94b30020bc
:1013e800c0b2002049b30020c4ebc402d74b03ebc2
:1013f8004213002283f85020c4ebc402d34b03eb02
:101408004213042283f83f204ff47a71384608f0db
:10141800dffb002858d04ff00009c4ebc403cb4ac7
:1014280002eb43184a460f21384603f031fc0028e6
:1014380047d098f8502092071221384603f028fc2c
:1014480000284ad097f89d3013f0010f03d098f880
:101458004d30002be6d0384608f045fec4ebc402f8
:10146800ba4b03eb421393f84d306bbbc4ebc40289
:10147800b64b03eb4213052283f83f2000221021cc
:10148800384603f005fc98b1c4ebc403af4a02eb3d
:10149800431292f8a11092f8a0301b0443ea0163aa
:1014a80092f89e100b4392f89f2053ea022318d417
:1014b800c4ebc402a54b03eb42130c2283f83f2074
:1014c8003fe0384608f00ffec4ebc4029f4b03eb25
:1014d80042130c2283f83f2033e0384608f003fe1d
:1014e800f2e713f0804f994a4ff0e00303fb04231f
:1014f80014bf0122002283f87420c4ebc402934b6a
:1015080003eb4213062283f83f20c4ebc4088f4b39
:1015180003eb481898f95c20d8f86010384608f0b2
:10152800f9fa072388f83f300121384608f0aeff62
:1015380048bbc4ebc402854b03eb42130c2283f86f
:101548003f200021384608f0a1ffc4ebc4037f4abe
:1015580002eb431393f83f300b2b00f00b810c2b5d
:101568007ff42cae794ae1000b1b02eb43130020f9
:1015780083f8700083f8710083f83e001a4601234f
:1015880082f83d301ae600220321384603f080fb3a
:1015980020b90021384608f079ffcae714223946f5
:1015a800384608f06eff0028f3d0dff8a09105f167
:1015b800750809eb080cbe46bee80f0049f808009c
:1015c800ccf80410ccf80820ccf80c30def8000079
:1015d800ccf8100019f80830fe2b08bf0cf1010cec
:1015e8009cf8003013f0c00f29d09cf80720120493
:1015f80002f47c129cf8083042ea03229cf8093075
:101608001a4301329202c4ebc408504b03eb48184a
:10161800c8f86c200021384608f038ff082388f8fd
:101628003f300121384608f031ff68bbc4ebc402e3
:10163800464b03eb42130c2283f83f2081e79cf8ca
:10164800061001f003019cf8073043ea01219cf8d9
:101658000920520002f006029cf808309b0943ea70
:10166800810301339cf80a1042ead11202329340f6
:101678009cf8052002f00f02a2f1090101228a401c
:1016880092b202fb03f2bee700220421384603f0bf
:10169800fffa20b90021384608f0f8fec6e7142200
:1016a8003946384608f0edfe0028f3d0dff89c8074
:1016b80005f1890908eb090ebc46bce80f0048f89b
:1016c8000900cef80410cef80820cef80c30dcf86b
:1016d8000000cef810000021384608f0d7fec4eb11
:1016e800c40308eb4318092388f83f30002211216e
:1016f800384603f0cdfa40b9c4ebc402134b03ebf0
:1017080042130c2283f83f201be7c4ebc4020f4ba3
:1017180003eb42130a2283f83f204ff4007207219b
:10172800384603f0b5fa40b9c4ebc402074b03ebe3
:1017380042130c2283f83f2003e7c4ebc402034b97
:1017480003eb42130b2283f83f20fae6c0b20020d5
:10175800c4ebc4021d4b03eb4213002283f83f2065
:10176800efe6c4ebc402194b03eb4213002283f8e3
:101778003f20e6e6e000031b02eb4313002183f859
:101788007210d96e4ff40077c3f8b870c3f8bc1064
:10179800c3f8c070c3f8c410c3f8c870c3f8cc103d
:1017a800182183f8a4100121c3f8a810c3f8ac10bd
:1017b800c3f8b010b8351544c3f8b45083f87310a3
:1017c800042583f83e5083f83d10f7e4c0b20020aa
:020000040000fa
:1017d80020b700201c00000000000000c0b200205c
:1017e800e000000000000000d4b500204800000020
:1017f80000000000d4b80020010000000000000034
:1018080044b800200c0000000000000058b8002078
:101818000c00000000000000d5b800200100000006
:101828000000000088b600202c0000000000000026
:10183800d6b800200100000000000000acac002079
:101848000400000000000000fcb7002010000000a9
:1018580000000000ceb800200200000000000000d8
:10186800acaa0020000200000000000050b80020d0
:1018780008000000000000000cb800201000000064
:1018880000000000b0b000201001000000000000bf
:1018980070b70020140000000000000008a4002019
:1018a80008000000000000001cb600200400000032
:1018b80000000000ccb8002002000000000000007a
:1018c800b0ac00200002000000000000b0ae002014
:1018d8000002000000000000b4b60020280000004c
:1018e800000000003cb700201c00000000000000c1
:1018f80058b700201800000001000000b4b600200e
:101908003cb7002038b8002000000000b0ae00202e
:101918000000000084b7002014000000010000004f
:10192800589d00005c9d0000609d0000689d0000bf
:101938006c9d000020b60020380000000000000068
:1019480060a60020400200000000000010a4002053
:101958005002000000000000d7b80020010000007d
:101968000000000058b60020300000000000000011
:10197800a0b30020a000000000000000d0b80020a4
:101988000200000001000000010000001cb8002057
:101998001000000000000000dcb600202400000059
:1019a800000000002cb800200c000000000000001f
:1019b80038b800200c000000000000006cb80020bf
:1019c800040000000000000070b8002004000000bf
:1019d80001000000aaaaaaaa74b800200400000006
:1019e800000000000000002000a00000000000002f
:1019f80078b8002004000000000000007cb8002037
:101a0800040000000000000080b80020040000006e
:101a18000000000084b8002004000000000000005e
:101a280020b50020640000000000000088b80020f5
:101a380004000000000000008cb800200400000032
:101a48000000000090b80020040000000000000022
:101a580094b80020040000000000000098b800209e
:101a6800040000000000000098b7002014000000e7
:101a780000000000acb700201400000000000000c7
:101a88009cb800200400000000000000a0b800205e
:101a98000400000000000000a4b8002004000000ba
:101aa80000000000a8b800200400000000000000aa
:101ab800c0b700201400000000000000acb80020ef
:101ac8000400000000000000d4b70020140000004b
:101ad80000000000e8b7002014000000000000002b
:101ae800b0b800200400000000000000b4b80020d6
:101af8000400000000000000b8b800200400000046
:101b080000000000c0b1002000010000000000003b
:101b1800d2b800200200000000000000bcb800207d
:101b2800040000000000000084b500205000000000
:101b380000000000a0a800200c0200000000000027
:101b480040b40020780000000100000050b40020dc
:101b580048b4002050b4002000000000000000003d
:101b68002500000008a0002000040000000000007c
:101b7800000000000000000000000000000000005d
:101b8800000000000000000000000000a3a5000005
:101b9800000000000000000000000000000000003d
:101ba800b1840000000000000000000000000000f8
:101bb800000000000000000000000000000000001d
:101bc8000000000000a00020080400000000000041
:101bd80000b7002020000000010000000100000004
:101be80003000000000000000000000000000000ea
:101bf800000000000000000064b8002064b8002065
:101c08000800000000000000c0b800200400000028
:101c180000000000c4b8002004000000000000001c
:101c2800b8b40020680000000100000001000000b6
:101c38000300000000000000000000000000000099
:101c480000000000000000008d830000000000007c
:101c58000000000000000000a9a50000db990000ba
:101c6800000000000000000000000000000000006c
:101c7800000000000000000000000000000000005c
:101c8800000000000000000000000000000000004c
:101c980000000000c8b80020040000000000000098
:101ca800000000000000000022222222222222221c
:020000040000fa
:101cb8002de9f04f83b09d4b1e68197d21b933780b
:101cc8004bbb03b0bde8f08f3378002b40f0e281c6
:101cd80030460022531cdbb29942f2d010f8284f4c
:101ce8000cb91a46f6e70232d2b2012a00f0d381c3
:101cf8008e490a75ff2be4d003eb8303dc0035190a
:101d08006b79012b09d02b7b042bdad8dfe803f0a1
:101d18000a1d2e4f7f000b46eee72b7b042b10d0bd
:101d280000232b7395f82030012b00f087810023c6
:101d3800335585f820306b71ab70eb706b702b717d
:101d4800bfe77a4b00225a75eae7ab685b6a032162
:101d5800e88898476861b0f1ff3fb2d0ab681b696b
:101d68002a467349984702232b73aae7ab681b6876
:101d78006869984768b195f8203033b9ab685b68f3
:101d880068699847686203232b73012385f820301c
:101d980097e795f82030012b03d0002385f82030f1
:101da8008fe7284608f036f900232b71f5e75f4bdb
:101db8005b7d012b85d05d4b01225a756b6a1b69cf
:101dc8001b68b3f5007f3abf4ff40076b6fbf3f615
:101dd8000126564c4ff400720021206908f0eafaf7
:101de800022385f821306869ab6800969e68002355
:101df800226905f11c01b047eb69b3f1ff3f02d03e
:101e080004232b735de7494b00225a7559e795f96e
:101e18002130022b06d06bb1444b00225a750323a4
:101e28002b734ee7ab68db6a002b3ff44aaf286997
:101e3800984746e73d4b1c6900236b7094f8fe31c8
:101e4800552b6cd04ff0000847464ff0ff09374b31
:101e58005c682378002b5cd1344bd3f810a02b7925
:101e680001332b712a7e334b53f822b0584608f0c1
:101e7800a9fac6b232465946a01c08f097f9aa78c2
:101e8800a3199a70731c54fa83f32a7930329a7022
:101e9800b31c54fa83f300229a70a56184f8019068
:101ea80067b317f0010f00f0b3801746b9f1ff0fc1
:101eb80024d0214b33f817301af8032062709a4463
:101ec8009af80b209af80a301b0403eb02639af87d
:101ed800092003eb02239af80820134463619af857
:101ee80007209af806301b0403eb02639af80520d2
:101ef80003eb02239af8042013442361b8f1000f7e
:101f080000f096800d4bea781a7001375f70012354
:101f18002370064b00225a7502232b73d1e694f8de
:101f2800ff31aa2b0cd04ff000088de758b70020de
:101f3800dd96000084b70020f8a40000ccb800208b
:101f48002378eb2b2bd094f8c20107f09bfe0028d6
:101f58004cd16b7800276b7094f8d20107f092fe91
:101f680020b147f002076b7801336b7094f8e201f7
:101f780007f088fe002840d047f004076b7801334b
:101f88006b7094f8f20107f07dfe90b347f00807f4
:101f98006b7801336b704ff00108c14657e76378df
:101fa8003c2b03d0582b01d0fe2bccd1a378902bff
:101fb800c9d101236b7094f85230462b42d094f863
:101fc8005330412b44d094f85430542b46d094f8d5
:101fd8003630462b48d094f83730412b4ad094f805
:101fe8003830542b4cd04ff000082de701231f4602
:101ff800b1e74ff00108c14629e794f8f20107f06c
:1020080041fe0028c2d1002f40d14ff001081be744
:1020180017f0020f01d0012748e717f0040f01d08d
:10202800022743e707f00807002f18bf03273de7fb
:102038001b4bea781a7000225a7068e7284607f0a6
:10204800e9ff74e64ff0000847464ff00b09fee63b
:102058004ff0000847464ff00b09f8e64ff000082c
:1020680047464ff00b09f2e64ff0000847464ff09d
:102078000609ece64ff0000847464ff00609e6e689
:102088004ff0000847464ff00609e0e64ff0010818
:10209800c146dce60023034a002111752ce600bf87
:0820a800ccb8002058b700205d
:020000040000fa
:1020b0002de9f04f89b081468846036803930b7879
:1020c0002f2b05d05c2b03d0039b9b6983600ae018
:1020d0004346984613f8012b2f2afad05c2af8d0f1
:1020e0000023c9f8083098f800301f2b04d9b84bea
:1020f0000c330093474616e1802389f82f300021e6
:10210000484604f009fd034686e1fe2c00f2ad804e
:1021100025f81460013407a807f088fcb0f1ff3ff0
:1021200000f0a380b0f5803f03d3030c25f81430f2
:10213000013486b21f2e21d92f2e0cd05c2e0ad04e
:102140007f2ee2d83146009808f086f80028dcd0cf
:102150008be001330793079b1a782f2af9d05c2a6a
:10216000f7d01f2a8cbf00260426079f012c07d01a
:10217000022c1bd00cb305eb440222e00426f4e74a
:102180002b882e2bf7d1002325f8143009f12302d8
:102190009c428cbf2e21202102f8011f01330b2b02
:1021a000f6d146f0200689f82f609de06b882e2b33
:1021b000e1d12b882e2bded1e5e7ab4652e0013c86
:1021c0004fd032f8023d202bf9d02e2bf7d06000f3
:1021d000002325f81430002c47d02a88202a46d125
:1021e0002946013331f8022f202afad0002b3fd0a4
:1021f00046f00306f6b2811e6a18695a2e2905d0e8
:10220000013c03d032f8021d2e29f9d14ff02031c4
:10221000c9f82410c9f82810c9f82b104ff0080885
:102220000022019202926a4a18320492a34603f1f4
:10223000010a35f8134084b3202c1ed02e2c1ad05e
:10224000019b43451ed2da4500f0f2807f2c7dd8f9
:102250002146049808f000f8002800f0ae800596aa
:1022600086e0ab460023abf800300623d4e0002321
:102270002e2ac0d1bce7da45e2d046f00306f6b21a
:102280005346d4e7b8f10b0f53d0da4500f0d480b1
:1022900046f00306f6b240f2cf8099f82430e52be1
:1022a00050d0b8f1080f00f0a680029a02f00c039b
:1022b0000c2b03d002f00303032b02d146f00206dd
:1022c000f6b216f0020f0dd1029b13f0010f1cbfe6
:1022d00046f01006f6b2029b13f0040f1cbf46f046
:1022e0000806f6b289f82f60484601f0d3fd99f848
:1022f0002f200346002840f0838012f0040f40f0a6
:102300008b8099f8063013f0100f00f08f8003983f
:1023100000f14001d9f81430c3f30803194407f061
:10232000e7fcc9f808000797d9f80030dd680024f9
:10233000f1e646f00306f6b299f82430e52bb4d165
:102340004ff00b08052389f82430aae746f0020372
:10235000dbb2059340f2b511204606f0b7fd044606
:1023600010f0800f11d000f07f041a4b1c5d14bbdd
:10237000059b43f00306f6b2019b5f245a1c0192b1
:102380004b4483f82440534651e7ff28efd908f126
:10239000ff33019a9a4207d2019a531c4a44010a18
:1023a00082f82410059ee9e746f00306f6b253468c
:1023b000cdf804803be7059e4ae7a4f141039bb2b8
:1023c000192b09d8029b43f002030293019bd5e726
:1023d0001c8b0000907a0000a4f161039bb2192bc2
:1023e00007d8029b43f001030293203ca4b2019b57
:1023f000c4e7019bc2e7029b9b00dbb2029354e758
:10240000042b09d112f0200f0ad012f0040f8ad049
:10241000802389f82f300023184609b0bde8f08fdb
:1024200002f00402002a08bf0523f5e70523f3e7bd
:10243000b8f10b0f3ff47daf029b9b00dbb2029320
:0c2440005b464ff00b0808220192f0e60a
:020000040000fa
:10244c002de9f04f85b00e46154600230b6006f0c3
:10245c00e5f8071ec0f21b81a34b53f82740002c54
:10246c0000f01a81346005f0fe05237873b16078b2
:10247c0008f09df810f0010f08d1002d00f0088134
:10248c0000f00405002d18bf0a2501e1002323707c
:10249c00964b13f81700607007f05aff10f0010606
:1024ac0040f0fc801db110f0040f40f0f9808f4b10
:1024bc0003eb47077f780021204603f0dbfb022863
:1024cc0001d02dd897b3042f00f20c8104f206250d
:1024dc0004f24629e846284607f019fe48f8040b92
:1024ec0010354d45f7d13fb17d1e0deb85050df136
:1024fc0010084ff003090be03d46f6e7204603f0c9
:10250c00b9fb6fb9012801d810e04846a84507d09f
:10251c0055f8041b0029f1d1002ff6d00d25b7e09a
:10252c00042800f0bf80012800f2be8094f84c20f3
:10253c0094f84b3043ea02231bb2b3f5007f40f012
:10254c00b58094f8575094f8563053ea052504d1c9
:10255c0004f1640007f0dbfd0546d4f834902562e5
:10256c0094f85070a7707b1edbb2012b00f2a08098
:10257c0094f84d801ffa88f36381002b00f09a8049
:10258c0008f1ff3313ea080f40f0968094f85230ac
:10259c0094f851a04aea032a0ffa8afa1ffa8afb26
:1025ac00a4f808b01bf00f0f40f0888094f854305a
:1025bc0094f8530050ea032003d104f1600007f0b3
:1025cc00a6fd94f84f2094f84e3053ea022277d0af
:1025dc0005fb07fc02eb1b136344984272d3c01a31
:1025ec00b0fbf8f140456fd34148814200f288803e
:1025fc004ff6f570814288bf4ff0030800f28280dd
:10260c0040f6f570814288bf4ff002087dd88f1cd0
:10261c00e761c4f824904a44a2624b442363bbf1a3
:10262c00000f5bd06244e2624ff0010807eb4702f7
:10263c0007f0010303eb520303f2ff13b5eb532f27
:10264c004ad34ff0ff33636123618023237184f8f5
:10265c000080284a138801339bb21380e380264bf9
:10266c00e3600023a361254b1b689c420bd03546cd
:10267c000ee0bbf1000f2dd06244e262b8f1020f04
:10268c00d4d17b00d8e71d4b00221a60efe70b2555
:10269c00284605b0bde8f08f0c25f9e70325f7e7d0
:1026ac000a25f5e70125f3e70d25f1e70d25efe701
:1026bc000d25ede70d25ebe70d25e9e70d25e7e702
:1026cc000d25e5e70d25e3e70d25e1e70d25dfe712
:1026dc000d25dde70d25dbe70d25d9e70d25d7e722
:1026ec000d25d5e70d25d3e7acac0020ccb80020e8
:1026fc00f5ffff0fceb80020acaa0020fcb70020dd
:10270c004ff00008b8f1000fead08f1ce761c4f855
:10271c0024904a44a2624b442363b8f1030fa8d11e
:10272c0094f86b2094f86a3043ea02231ffa8afa71
:10273c005aea0303cad104f16c0007f0e8fce0622a
:10274c00bb0003f2ff13b5eb532fc1d34ff0ff3394
:10275c00636123618023237194f8712094f87030a5
:10276c0043ea02231bb2012b7ff471af09f1010183
:10277c00204606f093fd00287ff469af00232371f7
:10278c0094f83f2294f83e3243ea02231bb20f4adc
:10279c0093427ff45caf04f1400007f0b8fc0c4ba3
:1027ac0098427ff454af04f5097007f0b0fc094b64
:1027bc0098427ff44caf04f50a7007f0a8fc6061f6
:1027cc0004f50b7007f0a3fc206140e755aaffff4e
:0827dc00525261417272416129
:020000040000fa
:1027e4002de9f04f9db004460e46174600218df8a2
:1027f400231048220aa807f0dffd0994e94607e1ff
:10280400013609a806f0d4fc02e18846b178033603
:102814004ff0000e0fe1b17803364ff020084ff06f
:10282400020e08e1a1f13003dbb2092b88bf0025b9
:1028340000f20881002505eb850501eb4501a1f1b6
:10284400300516f8011ba1f13003dbb2092bf2d9d4
:10285400f8e031782a2904d157f8044b717802360c
:10286400f5e00136a1f13003dbb2092b88bf002467
:1028740000f2ed80002404eb840401eb4401a1f197
:10288400300416f8011ba1f13003dbb2092bf2d995
:10289400dde057f8041bc9b209a806f089fcb7e0cb
:1028a400bb465bf8047b07b3397809b33b46c7f1f1
:1028b400010000eb030a13f8012f002af9d1002cc0
:1028c40002dba24528bfa2461ef0020f13d15545d4
:1028d40007d9414609a806f06bfc0af1010a5545df
:1028e400f7d1397841b95f4692e00df12307dbe770
:1028f4004ff0000ae3e759b1b8464cb109a806f015
:1029040057fc18f8011f19b1a4eb0803df42f5d1f5
:102914000af1010455450bd9202700e01c4639462d
:1029240009a806f045fc631ca542f7d15f466fe099
:102934005f466de009a806f03bfc69e00a2000e070
:1029440010201ef0040f00f0e68057f8042b6429d1
:1029540004d1002abcbf52424ef0010e78290cbfac
:102964004ff0270b4ff0070bcc464ff0000a03e063
:1029740057f8042bede7a246b2fbf0f100fb11235c
:10298400dbb2092b84bf5b44dbb20af101043033b0
:102994000cf8013b904204d80a46202cebd14ff0ae
:1029a4001f0a1ef0010f06d01cab1c442d2304f893
:1029b400703c0af102041ef0020f0dd1ac420dd29c
:1029c400a246414609a806f0f3fb0af1010a55455f
:1029d400f7d1013c4c4404e0a246fae7a246f8e7ea
:1029e4004446a04618f8011909a806f0e1fb4c4535
:1029f400f6d10af1010455450ad94ff0200800e048
:102a04001c46414609a806f0d3fb631ca542f7d136
:102a14003178002900f0858025297ff4f1ae7178a2
:102a240030293ff4f2ae2d293ff4f5ae02364ff0d3
:102a340020084ff0000e2a297ff4f4ae57f8045b07
:102a440016f8011b2e293ff404af4ff0ff346c2914
:102a540004bf4ef0040e16f8011b002961d0a1f149
:102a64005803202b3ff666af01a252f823f000bfb3
:102a740045290000392900003929000039290000be
:102a840039290000392900003929000039290000ba
:102a940039290000392900000b2b00009728000079
:102aa4004129000039290000392900003929000092
:102ab400392900003929000039290000392900008a
:102ac400392900003929000039290000f92a0000b9
:102ad400392900003929000039290000a5280000ff
:102ae4003929000041290000392900003929000052
:102af400452900001ef0040f01d108200ee057f80c
:102b0400042b08202ae71ef0040f03d057f8042be7
:102b1400022023e7022064293ff42aaf57f8042b4c
:102b24001ce709a806f036fc1db0bde8f08f00bf15
:020000040000fa
:102b34002de9f04f85b00e469146984606f07cf993
:102b4400054616b14ff0ff333360002d00f0798154
:102b54002c780194c4ebc402be4b03eb421393f8ec
:102b64007330002b00f06f81b8f1000f00f070811a
:102b74000f9b002b00f07281b9f1000f66d10e9a01
:102b84009918c4ebc403b34a02eb4313d3f8bc3023
:102b9400994200f26581c4ebc40b4fea4b1bad4b69
:102ba40003eb0b0a0121504607f072fc074600288c
:102bb40000f04a81a84b5b4402934ff6ff7118461c
:102bc40007f023f9012858d1e6b1c4ebc403a14aa4
:102bd40002eb4313022283f83020998e2a781202e2
:102be40042ea01429a6332609b8e01339bb24ff6f4
:102bf400ff72934208bf0123c4ebc402954901eb61
:102c040042129386b9f1000f40f08a800f9b022b89
:102c140034bf4ff008094ff00909c4ebc4038d4acf
:102c240002eb431393f8743013b90e9b5b020e93bb
:102c34000e9a4946504602f02df800283bd09af8e7
:102c44009db0bbf1000f36d100272de00f9b0e9aeb
:102c54009918c4ebc4037f4a02eb4313d3f8c4307e
:102c6400994200f2ff80c4ebc40302eb431393f8d0
:102c74007230002b8fd00027e6e00021504607f089
:102c840007fc0027e0e04146504607f0c1fb90b145
:102c940002225146504607f0f6fb60b108f5007871
:102ca40001370f9bbb4220d0fa22fe21504604f08c
:102cb4003bfc0028e7d14ff0010b00273eb1c4ebe9
:102cc400c404644b03eb4414002384f830306b6871
:102cd4001bb1aa68314658469847029807f084f910
:102ce4000021504607f0d4fbaee0b9f1090f0fd034
:102cf400c4ebc4035b01574aff21d154012251465e
:102d0400504607f0bbfb071e08bf4ff0010bd5e789
:102d140000220521504601f0bdff0028e8d1cae792
:102d24000f9b022b34bf0a230b230393c4ebc4036e
:102d3400484a02eb431393f8743013b90e9b5b02b9
:102d44000e930e9a0399504601f0a4ff002847d031
:102d54009af89db0bbf1000f42d10027019bc3eb51
:102d6400c3023c4b03eb4219cdf804b0ddf80cb0c0
:102d740027e04146504607f045fb88b3ff2389f816
:102d8400003089f8013002225146504607f076fba4
:102d940030b301225146504607f075fb00b399f851
:102da400003003f01f03052b1ad1fa22ff215046ed
:102db40004f0bafba0b108f5007801370f9bbb42c1
:102dc40012d0bbf10a0f0cbffe236ff0030389f886
:102dd400003001225146504607f050fb0028c8d16c
:102de4004ff0010b002769e7ddf804b0039b0b2bc0
:102df40010d0c4ebc4035b01164aff21d154012255
:102e04005146504607f03afb0746002f08bf4ff0e3
:102e1400010b53e70f4ac4ebc4035b01d118fd2037
:102e2400d054ff234b7002225146504607f026fb34
:102e34000028d5d0fa22ff21504604f075fb07463e
:102e4400e3e7002700e00027384605b0bde8f08f2f
:102e54000027f9e7c0b2002094b300200027f3e76d
:082e64000027f1e70027efe76a
:020000040000fa
:102e6c002de9f04f099f154604468e461e46002b51
:102e7c0040f0cc808a42b2fa82fc4cd9bcf1000ff3
:102e8c000bd0ccf1200801fa0cfe20fa08f802fa5b
:102e9c000cf548ea0e0e00fa0cf44fea15491ffa2d
:102eac0085f8befbf9fa210c09fb1ae30afb08fbb7
:102ebc0041ea03439b452ad9eb180af1ff3004d2af
:102ecc009b4502d9aaf102002b44a3eb0b03a4b23d
:102edc00b3fbf9f209fb123302fb08f844ea034492
:102eec00a04516d92c1902f1ff3303d2a04501d904
:102efc00931e2c44a4eb080443ea004027b124faa7
:102f0c000cf400233c607b603146bde8f08f5046ea
:102f1c00dbe71346eee702b9ffdebcf1000f2ed162
:102f2c008b1a01264fea154eaab2b3fbfef8210c00
:102f3c000efb183308fb02f941ea0343994561d9aa
:102f4c00eb1808f1ff3004d2994502d9a8f1020020
:102f5c002b44a3eb0903a4b2b3fbfef10efb11331c
:102f6c004a4344ea0344a2424ed92c1901f1ff33df
:102f7c0003d2a24201d98b1e2c44a41abce7ccf17b
:102f8c00200e02fa0cf521fa0ef901fa0cf320fad4
:102f9c000efe4eea03034fea154800fa0cf4b9fb97
:102fac00f8f11ffa85fe08fb1192180c01fb0ef6c6
:102fbc0040ea0242964221d9aa1801f1ff3003d20d
:102fcc00964201d9881e2a44921b9bb2b2fbf8f997
:102fdc0008fb192209fb0efe43ea02439e450fd95a
:102fec00eb1809f1ff3604d29e4502d9a9f102066d
:102ffc002b44a3eb0e0346ea004693e70846e3e7af
:10300c004e46f6e74046a4e70b46b6e78b4206d998
:10301c00002f7ed00026c7e90001304674e7b3fad2
:10302c0083fcbcf1000f0fd18b4201d3824209d833
:10303c00841a61eb030e0120002f6dd0c7e9004efe
:10304c00002661e76046f7e7ccf1200e03fa0cf39b
:10305c0022fa0ef521fa0ef41d4301fa0cf320fab4
:10306c000ef10b434fea154a00fa0cf6b4fbfaf9d1
:10307c001ffa85f80afb19401c0c09fb08f144eafd
:10308c000044a14202fa0cf23fd92c1909f1ff308d
:10309c0004d2a14202d9a9f102002c44641a9bb2b9
:1030ac00b4fbfaf90afb194409fb08f843ea04419a
:1030bc0088452cd9691809f1ff3304d2884502d907
:1030cc00a9f10203294443ea0040a1eb0801a0fb4b
:1030dc0002894945c2464c4602d306d1464504d224
:1030ec00b8eb020a69eb05040138afb1b6eb0a0381
:1030fc0061eb040606fa0efe23fa0cf34eea030308
:10310c0026fa0cf6c7e900369ae74846c6e74b465e
:0c311c00d9e73e463846f7e63e46f5e6a9
:020000040000fa
:103128000000000068656c6c6f2e747874000000f5
:1031380048656c6c6f20776f726c64210d0a000013
:1031480000000000434d443a204750494f204f4e5d
:1031580020414c4c00000000434d443a2047504960
:103168004f204f464620414c4c000000434d443a06
:103178002053575f3356335f3120454e41424c450b
:1031880000000000434d443a2053575f3356335fe5
:10319800312044495341424c45000000434d443ad4
:1031a8002053575f3356335f3220454e41424c45da
:1031b80000000000434d443a2053575f3356335fb5
:1031c800322044495341424c45000000434d443aa3
:1031d8002053575f35565f3120454e41424c4500dc
:1031e800434d443a2053575f35565f312044495385
:1031f80041424c4500000000434d443a2053575f7c
:1032080035565f3220454e41424c4500434d443ac5
:103218002053575f35565f322044495341424c454d
:1032280000000000434d443a2053575f35565f3342
:1032380020454e41424c4500434d443a2053575f88
:1032480035565f332044495341424c450000000045
:10325800434d443a2053575f35565f3420454e411d
:10326800424c4500434d443a2053575f35565f342e
:103278002044495341424c4500000000434d443a24
:103288002053575f31325620454e41424c4500008d
:10329800434d443a2053575f3132562044495341f5
:1032a800424c4500434d443a20564241545420452f
:1032b8004e41424c45000000434d443a205642419d
:1032c80054542044495341424c450000434d443a2c
:1032d8002057445420454e41424c4500434d443a02
:1032e800205744542044495341424c4500000000b3
:1032f800434d443a204255524e20454e41424c459a
:1033080000000000434d443a204255524e204449a3
:103318005341424c45000000434d443a2042555227
:103328004e3120454e41424c45000000434d443a41
:10333800204255524e312044495341424c450000e9
:10334800434d443a204255524e3220454e41424c5c
:1033580045000000434d443a204255524e32204425
:10336800495341424c450000434d443a204842529b
:10337800494447453120454e41424c450000000034
:10338800434d443a20484252494447453120444934
:103398005341424c45000000434d443a20484252b4
:1033a800494447453220454e41424c450000000003
:1033b800434d443a20484252494447453220444903
:1033c8005341424c45000000434d443a2046415485
:0433d8004653000058
:020000040000fa
:1033dc002de9f04f89b090f82fb01bf0a00f40f002
:1033ec00fb80d0f80090d9f80c301a881ab300275b
:1033fc00013733f8022f002afad1064605ab0246f4
:10340c0052f8240f5168926807c31bf0010f00f0ab
:10341c008180402386f82f3006f1240405ab03cbc2
:10342c00706261601a889b782281a37201252b46f9
:10343c004ff07e0a02e00027dfe72b460df1130c5c
:10344c00072200e0734603f00f0000f130014fea51
:10345c00131e392988bf00f137010cf80119013a04
:10346c0000f0de800f2bedd808ab134403f814ac3e
:10347c0096f82430202b08bf002308d021460023c7
:10348c0001339a4203d911f8010f2028f8d1013bde
:10349c00234407e02021581c597002331b1b072bb7
:1034ac0008d80346072af5d808a9114411f8141caa
:1034bc000132f0e7304600f0e7fc804620bb0135d6
:1034cc00642d4ad0d9f80c2005ab03cb2060616089
:1034dc0019889b782181a372052daed9901e2b469d
:1034ec0030f8022f002aa9d0102102f0010c0cebad
:1034fc004303520813f4803f1cbf83f4883383f0da
:10350c0021030139f1d1ebe7642d6bd0042865d18f
:10351c0086f82fb01bf0020f00f086800c37564c4b
:10352c00a4fb0734a408611c304605f0c7fa80469a
:10353c00002853d10c2f7ed97169a1eb4411304670
:10354c0003f0e4fa8046002848d106f1240006f086
:10355c0076fc0090002301931ae04ff007083de041
:10356c00384649e04ff6ff72934202d03ef81030d5
:10357c000bb94af0400a81f800a0012389f8033006
:10358c000021304603f08bf8804638bb013c52d00a
:10359c00f169484605f082fe8046f8b9d9f80ce08e
:1035ac00316a5ffa84fa009b4b734ff00f03cb72b6
:1035bc004ff000030b738b76cb760af1ff3000ebe8
:1035cc00400300eb83002d4a02f10d0c019b4ff6da
:1035dc00ff754ff0ff0812e04ff00608404609b0a7
:1035ec00bde8f08f4ff00708f8e7177801eb070bf1
:1035fc0001f807808bf8018001326245b2d0ab42f2
:10360c00f3d0471c3ef81030107801eb000b0b5434
:10361c00180a8bf80100002ba2d138462b46ebe799
:10362c008df80ca0134632e70121304605f046fa1e
:10363c0080460028d2d1f169484605f02ffe80461d
:10364c000028cbd120220021306a06f0b1fe326a6c
:10365c00334653f8240f59681060516019899b7ace
:10366c0011819372326a96f82f3003f0180313739a
:10367c00012389f80330b1e74fecc44e1ca30000c2
:020000040000fa
:10368c002de9f04790b00191002800f0ef8004463e
:10369c00154602f03f073a4602a901a8fef7d0fef4
:1036ac00064628b100232360304610b0bde8f087f1
:1036bc00029b0393019903a8fef7f4fc0346002830
:1036cc0040f0fd809df93b30002bc0f2e38037f0d9
:1036dc00010314bf0121002103a804f071ff03466c
:1036ec0015f01c0f40f0ee80002840f0d1809df8c2
:1036fc00123013f0100f40f0c38015f0020f03d0fe
:10370c0013f0010f40f0be8015f0080f01d047f008
:10371c004007029b5b6b63620b9ba36237f0010358
:10372c0014bf0121002103a804f0dafb206100285a
:10373c0000f09e80ddf808a0ddf82c804146504654
:10374c0006f0d0fa0546a06008f11c0006f0dffc7c
:10375c008046e060c4f800a0baf80630a380277554
:10376c00002161752162a16104f130094ff40072ee
:10377c00484606f01dfe17f0200f95d0b8f1000f4b
:10378c0092d0c4f81880baf80a707f02b84500f2db
:10379c008880e561c8f30803002b85d0029f294679
:1037ac00384606f0bffc002853d1022664e0042bf7
:1037bc0040f083804b4b1b680bb1122672e703a8b9
:1037cc00fff706fe00285fd147f0080717f0080f37
:1037dc009fd006f0c3f9054601460b980e3006f053
:1037ec008ffd29460b98163006f08afd029dddf8f8
:1037fc002c804146284606f075fa8146202388f82d
:10380c000b3000220b99284606f0c4fb00210b98c4
:10381c001c3006f075fd029b0122da70b9f1000f25
:10382c003ff475af029b5d6b0022494603a803f081
:10383c002dfe08b1064635e72946029805f02efd07
:10384c0009f1ff33029a136100283ff460af06467a
:10385c0028e700eb5822226201234946787805f0cc
:10386c00c5ff00283ff420af012605e009261be721
:10387c00022617e70226e561206905f047fe11e7ed
:10388c0004260fe707260de706460be7072609e790
:10389c00064607e7062605e7a8eb07084745bff4e9
:1038ac0078af2946204602f02cfe05460128e1d9c6
:1038bc00b0f1ff3ff0d10126dde71e46f2e615f030
:1038cc001c0f0dd0002b7ff472af9df8123013f04b
:1038dc00110fdbd115f0040f3ff478af0826e1e6a9
:0838ec000646dfe6fcb70020f0
:020000040000fa
:1038f40061001a03e0001703f8000703ff0001004a
:1039040078010001300132010601390110014a0138
:103914002e017901060180014d00430281018201db
:1039240082018401840186018701870189018a015a
:103934008b018b018d018e018f0190019101910109
:1039440093019401f60196019701980198013d02b3
:103954009b019c019d0120029f01a001a001a201e5
:10396400a201a401a401a601a701a701a901aa011a
:10397400ab01ac01ac01ae01af01af01b101b201c9
:10398400b301b301b501b501b701b801b801ba017a
:10399400bb01bc01bc01be01f701c001c101c201f0
:1039a400c301c401c501c401c701c801c701ca01db
:1039b400cb01ca01cd011001dd0101008e01de0140
:1039c4001201f3010300f101f401f401f8012801eb
:1039d400220212013a020900652c3b023b023d021d
:1039e400662c3f0240024102410246020a01530290
:1039f400400081018601550289018a0158028f0124
:103a04005a0290015c025d025e025f029301610250
:103a140062029401640265026602670297019601dc
:103a24006a02622c6c026d026e029c0170027102c9
:103a34009d01730274029f01760277027802790273
:103a44007a027b027c02642c7e027f02a601810240
:103a54008202a9018402850286028702ae01440221
:103a6400b101b20145028d028e028f0290029102d1
:103a7400b7017b030300fd03fe03ff03ac03040053
:103a84008603880389038a03b1031103c203020076
:103a9400a303a303c4030803cc0303008c038e0312
:103aa4008f03d8031801f2030a00f903f303f403a4
:103ab400f503f603f703f703f903fa03fa033004f3
:103ac400200350041007600422018a043601c10453
:103ad4000e01cf040100c004d00444016105260492
:043ae400000000bf1f
:020000040000fa
:103ae8002de9f84f80460e4699469500284604f081
:103af80015fb002800f0c2800746542004f00efb96
:103b08000446002800f0818007632a46a52138462c
:103b180006f050fc276b002e7dd0337884f83430c3
:103b280053b1334604f134010f3613f8012f01f86d
:103b3800012f0ab1b342f8d1002384f843300a9e1a
:103b4800042e28bf0426e66266644ff0000bc4f812
:103b580048b004f1040a504606f01cfd04f11800b0
:103b680006f018fd2461c6f10506a6616462c4f872
:103b78004cb084f850b0043d3d444a46414625f0d7
:103b8800070005f077fe20600b9b03b11c6006f070
:103b98000bf93e4a1368013313603d4b1b68002b39
:103ba8003dd03c4b1b683bb9394b1b68da6ae36a6a
:103bb8009a429cbf364b1c60374a13680133136026
:103bc800e06a364a1168012383400b43136000eb17
:103bd80080005146324b03eb800006f0bbfa06f03a
:103be80023fb2c4b1b68002b4cd0294b1b68da6a33
:103bf800e36a9a4248d22b4b4ff080521a60bff3c7
:103c08004f8fbff36f8f01203ae0384605f09ff8d9
:103c18004ff0ff3034e0002384f834308fe71c4b3a
:103c28001c601368012bc7d11d4d284606f087fa82
:103c380005f1140006f083fa05f1280006f07ffa72
:103c480005f13c0006f07bfa05f1500006f077fa22
:103c5800154e304606f073fa144d284606f06ffaf2
:103c6800134806f06cfa134806f069fa124806f091
:103c780066fa124b1e60124b1d609de74ff0ff3035
:103c8800bde8f88f0120fbe70120f9e788b800209c
:103c98007cb80020acb8002094b8002098b8002068
:103ca80020b5002004ed00e098b70020acb7002054
:103cb800c0b70020e8b70020d4b7002080b80020a3
:043cc80084b800209c
:020000040000fa
:103ccc002de9f04f87b004468846164699460023e6
:103cdc00c9f80030039005a905f03af901900028c5
:103cec0045d1637d0193002b41d1237d13f0020f4d
:103cfc0000f0c680a369f34200d3de43002e00f02f
:103d0c00ba8004f13003029390e0e169039801f06a
:103d1c0097fe002800f0af8001282cd0b0f1ff3fb7
:103d2c002dd0e061a36803b9a06094f91430002b86
:103d3c0029dbddf814b0e169584606f0f3f9824648
:103d4c0090b3ba44b6f5007f45d3750abbf80a3078
:103d5c007a199a4288bfdd1b2b46524641469bf886
:103d6c00010005f09dfc18b30123637501930198c4
:103d7c0007b0bde8f08f022363750193f7e70123c9
:103d8c0063750193f3e70123226a02990598407841
:103d9c0005f086fc20b9237d03f07f032375c8e76b
:103dac00012363750193e2e7022363750193dee758
:103dbc00216aa1eb0a01a94201d36d0226e04ff45e
:103dcc00007208eb4121029806f0eef9237d03f016
:103ddc007f032375f1e7236a534503d0a269e36897
:103dec009a423bd3c4f820a0a069c0f30800c0f5e8
:103dfc000075b54228bf35462a464146029b1844f9
:103e0c0006f0d2f9237d63f07f032375d9f80030d7
:103e1c002b44c9f80030a844a3692b44a361e26881
:103e2c00934238bf1346e360761b24d0a369c3f3d7
:103e3c000802002ad8d1059a5789013f17ea53275f
:103e4c007ff473af002b7ff460afa06800287ff481
:103e5c0063af0021039801f0f3fd5ae701235246aa
:103e6c0002999bf8010005f0c1fc0028bad001238f
:103e7c00637501937be7237d43f04003237576e75d
:063e8c000723019373e718
:020000040000fa
:023e9200704777
:020000040000fa
:103e94002de9f04f87b00446d0f800b0002102f0bd
:103ea40039fe0546002840f0b6804ff0ff33236307
:103eb4004ff0ff08c1461f460ae027634ff0ff0991
:103ec4000021204602f0effb0546002840f0a380c5
:103ed400e169584605f0e6f90546002840f09b8064
:103ee400266a3578002d00f09580f37a03f03f02be
:103ef400a271e52de1d013f0080f15d00f2adcd103
:103f040094f82f3013f0400fdad115f0400f26d07b
:103f140096f80d8005f0bf0563692363737b434501
:103f240023d04ff0ff09cbe70f2ae9d0b9f1000ff6
:103f340004d1304605f087ff404570d094f82f50e7
:103f440015f0010507d10b2204f12401304606f0d7
:103f540017f800285fd027634ff0ff09b0e7a945a1
:103f640018bf4ff0ff09abd1d8e7f27eb37e53ea16
:103f740002235bd1dbf80c000590337803f03f0398
:103f8400013b03eb430203eb8203dff8c4a00121ee
:103f9400cdf80480cdf808b00495984603940446ff
:103fa40006e04ff6ff739d4249d1284b53451ad082
:103fb4001af8013bf2185278f55c45ea022500290b
:103fc400efd0b8f1ff0f2cd8284602f049fd834604
:103fd40008f1010934f8180002f042fd834528d1a4
:103fe4002946c846e1e7ddf808b0049d4246ddf8fd
:103ff4000480039c337813f0400f04d019b1059b5f
:1040040033f812301bb9013d5ffa85f958e74ff0d8
:10401400ff0955e70425284607b0bde8f08f4d4653
:10402400f9e7ddf80480ddf808b0039c4ff0ff09e0
:1040340046e7ddf80480ddf808b0039cf6e7ddf818
:104044000480ddf808b0039cf0e700bf29a300005a
:044054001ca30000a9
:020000040000fa
:104058002de9f04f87b0039003a805f087f80028f2
:1040680003da002007b0bde8f08f039b1b095d1e33
:10407800202d0fd9023b5e4ab3f5007f35bf02eb16
:10408800d30302ebd31313f8045c13f8045c34bfb6
:10409800013511350123a5f12001c5f1200203faec
:1040a80001f923fa02f203fa05f8d8f1000849eaff
:1040b800020969eb4909cde90089dff84081dff899
:1040c80030914746d8e90023009902ea010a01998c
:1040d80003ea010b5aea0b0342d1039b05a81033ec
:1040e800059306f058f818b9424b0c221a60b9e744
:1040f800d8f80852a84206d0059b103b0593012327
:1041080000f110058360059bea18012143f00103c3
:10411800b5f1080442f8083c42f8041cc7f8082224
:1041280045f8043c9dd0204605f004fb88b155f8bd
:10413800083c55f8041c23f00103e31a5a6822f0de
:1041480001020a445a6055f8041c21f0010162502a
:104158001c462046039905f01dfb04f1080081e781
:104168005446254bbaf1000f34d1cbf1000000ead8
:104178000b00434309ebd36393f83c602036304689
:1041880005f022fe731c57f8334007ebc303083bc6
:104198009c4297d0272e26dd0235ae4201dc3f2e09
:1041a80021d16268039922f00102551a284605f0c8
:1041b80045f9864217d1e068a6686318d8609e6002
:1041c80083609868c36041f0010060505d60a5504d
:1041d8006060bee7caf100002040434309ebd363a7
:1041e80093f83c60cbe73146204604f03dfcb0e74d
:1041f80008890000c4b8002029e66b07a0a80020a1
:020000040000fa
:104208002de9f04f87b005468846144699460023a5
:10421800c9f80030029005a904f09cfe009000281f
:1042280040f09d806b7d0093002b40f098802b7da3
:1042380013f00103039300f0ac80ee68ab69f61a43
:10424800a64228bf2646002e00f0898005f13003db
:1042580001934fe0e969029802f055f958e002230a
:104268006b7500937be001236b75039b009376e0ed
:1042780002236b75009372e095f91430002b01db73
:1042880064022ce0286aa0eb0a00a042f8d24ff49e
:104298000072019908eb402005f088fff0e72a6ad0
:1042a80052450cd095f91430002b5cdb01235246a3
:1042b80001990598407805f09bfa002864d1c5f863
:1042c80020a0a969c1f30801c1f50074b44228bf50
:1042d80034462246019b1944404605f067ffd9f849
:1042e80000302344c9f80030a044ab692344ab61d3
:1042f800361b34d0ab69c3f30802002ae1d1059a12
:104308005789013f17ea532708d1002ba2d1a86883
:104318000128a4d9b0f1ff3fa5d0e861ddf814b0b9
:10432800e969584605f000ff82460028a0d0ba4443
:10433800b6f5007fb3d3740abbf80a303a199a422b
:1043480088bfdc1b2346524641469bf8010005f016
:104358004ffa002890d001236b75039b00930098b7
:1043680007b0bde8f08f012301999bf8010005f023
:1043780099f920b92b7d03f07f032b7596e701236c
:104388006b75039b0093eae701236b75039b00930e
:08439800e5e707230093e2e7cb
:020000040000fa
:1043a0002de9f04383b004460e46814601a904f08e
:1043b000d5fd8046002859d194f81580b8f1000f3a
:1043c00054d1e368b34205d2227d02f00202002af2
:1043d00008bf1e46a3690022a261002e46d0019aa2
:1043e00057897f026bb1013b721eb2fbf7f2b3fb40
:1043f000f7f18a4205d37a421340a361f61ae569c0
:1044000003e0a568002d35d0e56185b1be4258d8de
:10441000a3693344a361c6f30803002b70d0294677
:10442000019805f085fe002865d000eb5625a369ac
:10443000e268934204d9e360227d42f04002227593
:10444000c3f3080393b1226aaa420fd094f914303f
:10445000002b57db01232a4604f1300101984078f4
:1044600005f0caf9804600285ed12562404603b0b7
:10447000bde8f0830021204601f0e8fa0546012856
:1044800004d0b0f1ff3f06d0a060bde74ff00208b6
:1044900084f81580eae74ff0010884f81580e5e715
:1044a0002946484602f033f80546b5f1ff3f18d0db
:1044b000012d1bd9019bdb69ab4217d9e561b742de
:1044c000a6d2f61ba3693b44a361237d13f0020f20
:1044d000e6d02946484601f0b9fa05460028e4d15d
:1044e000a5e74ff0010884f81580bfe74ff00208f8
:1044f00084f81580bae74ff0020884f81580b5e714
:104500001d4694e7012304f130010198407805f03d
:10451000cdf820b9237d03f07f0323759ae74ff090
:10452000010884f81580a1e74ff0010884f8158090
:024530009ce706
:020000040000fa
:02453200fee7a2
:020000040000fa
:104534002de9f04f87b00190894600929a4605aa6a
:10454400012104f044ff002840f0a380ddf814802a
:10455400564b984540f29f8010264ff63e42b8fbda
:10456400f6f393421cd9760016f0ff06f7d14ff408
:1045740000720021504605f01fffff264c4ba3fba1
:1045840008235b090293a9f104090af5e3740af507
:10459400fb733f25dff81cb1cdf80ca09a464de023
:1045a4004ff400720021504605f006ffe6e7a8eb41
:1045b4000507002f53d02946204605f0a5fe3946ad
:1045c400201d05f0a1fe009b04f8043cabfb052371
:1045d400ea1a03eb52035b09b3fbf6f206fb123152
:1045e40004f8071c910821f03f01c3eb8313eb1a75
:1045f40001330b4304f8063c04f8052c3d446a1ec1
:10460400abfb0213d11a03eb51035b09b3fbf6f0c6
:1046140006fb103104f8031c810821f03f01c3ebb1
:104624008313d31a01330b4304f8023c04f8010c3e
:10463400544517d055b3103445450dd259f8047f6d
:10464400642f03d81abf029b5f4347467b19434537
:10465400add8ab42add2aae7ddf80ca004e0ddf89a
:104664000ca001e0ddf80ca055238af8fe31aa2342
:104674008af8ff31012300225146019805f014f80d
:10468400003018bf012007b0bde8f08fddf80ca0a2
:10469400eae70120f7e74ff400720021504605f0e5
:1046a4008bfeb8f13f0fdfd9082667e7f7e1070073
:0846b4001f85eb5105411004c4
:020000040000fa
:1046bc002de9f04f87b00392002840f0b5800f46eb
:1046cc001e465b4b1c686069b0f1ff3f2ed0636add
:1046dc001b699b680593b3f5007f0fd94fea5328ec
:1046ec00b8f1010f16d0524b01229a75002e00f032
:1046fc00888004f11c030493029653e0059ab2f5ea
:10470c00007f07d04ff40073b3fbf2f303fb07f702
:10471c0003fb06f6022384f82130a3680096dd68bb
:10472c003b46039a04f11c01a847e06907b0bde8b9
:10473c00f08f4ff0020384f821306069a3684ff4c6
:10474c00007200929b681e46059a0bfb02f3394ad5
:10475c000499b047029e94f92120022a06d1a3683d
:10476c00db6a002bf9d020699847f4e7029642b92e
:10477c006a0203992f4b03eb4a2005f015fd2d4ad5
:10478c001ee02b4b00229a754ff0ff30cee70296bd
:10479c00002a30d1029b5b1b02932f44039b03eb3b
:1047ac0045230393b7fbf8fb08fb1b7aa8eb0a091c
:1047bc004d46029b994528bf1d46a845b9d1039a81
:1047cc00029eb1451fd24ff0020384f8213060697c
:1047dc00a36801210091d3f80c905b460499c8475b
:1047ec0094f92120022ad2d1a368db6a002bf9d0dc
:1047fc0020699847f4e70e4b00229a754ff0ff3072
:10480c0094e7b346039a0a4b00219975022384f866
:10481c0021306069a36801210091dd685b4604f1d9
:10482c001c01a847e06981e74ff0ff307ee700bf2d
:08483c0058b70020b0ac0020c9
:020000040000fa
:104844002de9f04196b00190022208a901a8fdf7d4
:10485400fbfd044618b1204616b0bde8f0814ff0c8
:10486400203302930393cdf80f30019b1b781f2b49
:1048740054d9002540f2b517dff8408184e02e4674
:1048840053e0119a02ab03cb1060516019889b78f6
:10489400118193725ee0042801d00446dbe7002e08
:1048a400d9d0012109a804f00df904460028d2d179
:1048b40020220021119805f07ffd119b0822da7255
:1048c400119a02ab03cb1060516019889b78118157
:1048d4009372089b0122da70089802f0b7fe04462e
:1048e400b9e70624b7e70624b5e70624b3e70624a8
:1048f400b1e70624afe70624ade79df80830e52bc1
:10490400f5d0202cbbd116ab3344513b6eb1711e94
:1049140013f80129202a08d10e46f7e79df808303c
:10492400e52b01d1062496e70026089b0993002174
:104934000b9109a802f0eef8044600288bd101215e
:1049440009a800f0f9fc0028a5d1002e99d1119beb
:10495400e5221a70089b0122da70089802f076feac
:10496400044678e7092dc4d86e1c16ab1d44230aef
:1049740005f8503c751ce4b216ab334403f8504cb4
:10498400019b1b781f2bb8d901a805f04df8b0f591
:10499400803fa6d202f064f8394604f095fa044642
:1049a4000028a0d00146404605f054fc00289cd1c4
:1049b400ff2cd7d80a2d9ed82e46dbe7f4a10000a1
:020000040000fa
:1049c40008b5574b9b7d002b53d0554a536803f0d1
:1049d4000703127e12f0040f5bd0514a906a5149ca
:1049e4004a69c9688a4254d2002b43d14d4b596855
:1049f400885401325a614a4b1b7e13f0010f18d0c0
:104a0400474b01221a75474a93699268934258d2d8
:104a1400444a1168c85c4249886201339361414b3e
:104a24009a699b689a4261d03e4b5a69db689a4204
:104a340069d03b4b1b7e13f0020f14d03a4b1b780a
:104a4400bbb1384b5a69db689a420fd1354b00220f
:104a54001a7733490720087533490a701b6a43b132
:104a6400304a506a9847304b1b7813b12c4b0222c2
:104a74009a7508bd2b4b596821f8120001325a610e
:104a8400274b1b7e13f0010fd3d0254b01221a753f
:104a940009e0234a127e12f0010fcad0204a0121f4
:104aa4001175002bafd01f4a93699268934212d2ba
:104ab4001c4a116831f81300194988620133936163
:104ac400ade7184b1b6923b3154aff219162013be3
:104ad400144a1361a3e7134b1b69d3b1104a4ff671
:104ae400ff719162013b0f4a136198e70d4b1b69fb
:104af400002b99d10c4b01221a70094b1b7e13f029
:104b0400020f9ed1b2e7064b01229a7504221a7550
:104b14008fe7044b9a699b689a4285d1eae700bf04
:0c4b24000020014188b60020d5b8002018
:020000040000fa
:104b30002de9f84fd0f800a000238b75c369002b36
:104b400000f093800c460546036bb3f1ff3f2fd076
:104b500000263746b04640f2b51b08e004eb0803d8
:104b6000020a9a75d8750223984400270236daf8ab
:104b70000c30985b58b32fb900f520539bb2b3f5b6
:104b8000006f22d3c8f1ff09594640ea074004f0fc
:104b90009df9ff2810d9b9f1010fdfd84ff00009b6
:104ba000002f18bf4ff00009a144002389f81630e8
:104bb00000210b462e2615e058b1b9f1000fefd0b9
:104bc00004eb080398750123cee70746cee7c146fc
:104bd000e6e74ff00009e3e760184372013113463e
:104be0000b2a0fd05a1c286ac35c202bf7d0052b48
:104bf00008bfe523092aefd10b29edd860184672ca
:104c00000131e9e7631800225a72a37dbbb959b19b
:104c1000637a104663b104f1090208274ff0100cc3
:104c20006ff00706361b29e0481c21443f238b7593
:104c30002044002383752b6a1b7b03b963722b6aa4
:104c4000db7a03f03f032372286a1c3005f065fa13
:104c500020602a6ad17d937d43ea0123e3802a6a9a
:104c6000517e137e43ea0123a380bde8f88f674697
:104c70005373b01812f8013f002bd9d09bb22e2be2
:104c8000f5d0a3f1410189b21929f1d8296a097b2c
:084c90000f42edd02033ebe7e9
:020000040000fa
:104c98002de9f84304460f461546012105f0f6fbb9
:104ca800064600285fd0524b13f8372042f04002e6
:104cb8002270c5f307626270c5f30742a270c5f39c
:104cc8000722e270edb2257103ebc7035b786371cd
:104cd800ff23a371052fa04614bf062207222146f1
:104ce800204605f0c9fb064600283fd008254ff0ae
:104cf80001094a464146204605f0c3fb06460028fe
:104d080039d02378dbb2ff2b01d1013df1d12378d3
:104d1800dbb2ff2b34d0237884f89d30344b03eb7f
:104d2800c7039b78012b31d0314b03ebc7077d6854
:104d38002a462146204605f0a4fb0746002851d004
:104d4800012d0cd005f19d03234404f19e00611947
:104d58009d31ca1aa25c03f8012d8342f9d10021c2
:104d6800204605f093fb3046bde8f8830021204635
:104d780005f08cfbf7e70021204605f087fbf2e7fa
:104d88000021204605f082fb0026ece7642120463e
:104d980004f00cff0546c8b101252a4641462046c5
:104da80005f06ffb0746b8b194f84e3013b9237875
:104db800002bf2d1204605f08bf92378002bced1b9
:104dc8000021204605f062fb0026cce700212046a2
:104dd80005f05cfb2e46c6e70021204605f056fb91
:104de8003e46c0e70021204605f050fb3e46bae7a4
:044df80058700000ef
:020000040000fa
:104dfc0030b5a7b001900091684603f00ffc022279
:104e0c000ba901a8fdf71cfb034610b1184627b0ef
:104e1c0030bd0b9b1993019919a8fdf743f9034673
:104e2c000028f3d19df8933013f0a00f40f08f8041
:104e3c00022119a803f0c4fb03460028e6d1219dea
:104e4c0003ac28686968aa68eb680fc428696969ab
:104e5c00aa69eb690fc40cac19ad0fcd0fc40fcd03
:104e6c000fc40fcd0fc42b68236000990ca8fdf75d
:104e7c0019f9034658b90e9a1b9b9a4201d0082384
:104e8c00c4e7119a1e9b9a4203d00823bee704285c
:104e9c00bcd10ca8fef79cfa03460028b6d1149995
:104eac00ddf81950ddf81d40ddf82100ddf8252076
:104ebc00c1f80d50c1f81140c1f81500c1f8192006
:104ecc00bdf829009df82b20a1f81d00ca779df88c
:104edc00173013f0100f08bf43f02003cb720b9b5d
:104eec000122da70cb7a13f0100f1bd01b9a0e9b99
:104efc009a4217d00b9c204604f0f4fe0146204643
:104f0c0005f010f9014608b902237fe7204604f0aa
:104f1c00c5f9034600287ff479af0b9890f86130ff
:104f2c002e2b0bd019a803f0d5fb034600287ff4d9
:104f3c006daf0b9802f086fb034667e70e9a00f103
:104f4c00600105f027f80b9b0122da70eae70623d3
:024f5c005ce710
:020000040000fa
:024f5e00fee76c
:020000040000fa
:104f60002de9f04184b0044601914ff00008464617
:104f700045464f4f43e0013ba36323684bb1236990
:104f80005bb905f055f94ff00108404604b0bde8a3
:104f9000f08104f0dbffa060f1e704f1100002f003
:104fa000dfff0028edd0424b4ff080521a60bff374
:104fb0004f8fbff36f8fe4e705f03af94ff0000829
:104fc000e3e702a805f05af823e004f0f1fea06838
:104fd00001f0a6fe804605f02bf940e0204602f0e5
:104fe00056fe01f0b5f909e0204602f050fe01f04e
:104ff000aff9204605f0bdf8002844d1012604f0a1
:10500000d7fea36b002bb6d1019b002bd4d0002e72
:10501000d7d005f00df905f0b9f904f0c9fe94f800
:1050200044305bb2b3f1ff3f08bf84f8445094f8ba
:1050300045305bb2b3f1ff3f08bf84f8455005f03f
:10504000f7f801a902a803f0d5fb0028ccd120462f
:1050500005f08ff80028c1d02368002bb5d0019946
:1050600004f1240004f064ff204602f010fe01f079
:105070006ff90028c2d14ff080533b60bff34f8fd0
:10508000bff36f8fbae7b8f1000f3ff47eaf04f0c3
:105090008ffe616a19b1236b1968c1f10501a0681f
:1050a00002f076fd05f0c4f84ff000086de700bf90
:0450b00004ed00e02b
:020000040000fa
:1050b4002de9f84381460f461646984603f070fee4
:1050c400002800f090800446eeb1e7b1256895f819
:1050d400303013b1eb6a4b451dd105f138094ff659
:1050e400ff71484604f091fe012820d00024424b71
:1050f4001b78002b78d0404b00221a7005f1440035
:1051040004f072ff70e0089b002b70d0b8f1000f20
:10511400dcd1002468e04ff6ff7105f1440004f08f
:1051240074fe002865d0344b01221a70d5e7ab69b0
:10513400a34231d06b691b68002104f10800984731
:105144000023237794f91830b3f1ff3f0ed0627e29
:1051540032bb03f01f02c3f34a1303f5020000f548
:10516400807001219140c00105f023faac616369ac
:105174005a1e072a22d8089b5b00089376006b69a5
:105184005c68089b424631463846a0470446e0b96d
:10519400484604f029ffaae7237f002bd2d0c9e7b1
:1051a40003f01f02c3f34a1303f5020000f58070f5
:1051b40001219140c00105f0faf9d7e7092bded1ae
:1051c400089b9b000893b600d9e74ff6ff7105f1e1
:1051d400400004f00bfe012803bfac7fb4fa84f452
:1051e40064090024d4e700242046bde8f8830024a1
:0c51f400fae70024f8e700bfd4b8002060
:020000040000fa
:10520000f0b597b00190022203a901a8fdf71ef99d
:10521000044610b1204617b0f0bd039b09930199d5
:1052200009a8fcf745ff0446b0b10428f2d19df867
:10523000533013f0200f0dd1039b0493002104a8d9
:1052400000f004fc054648b1012d6ad104f08cfc45
:1052500002246ce00624dde70824dbe704f084fc8c
:10526000072464e004f080fc06462946039803f016
:1052700009fa044600285ad103984ff020330364fa
:105280004364c0f847302e2480f84040102380f853
:105290004b303146563005f039f803982a4600f174
:1052a000400104f07dfe039800f16001034653f8cd
:1052b00040efd3f804c09f68da68c0f860e0c1f836
:1052c00004c08f60ca60d3f810e0d3f814c09f699f
:1052d000da69c1f810e0c1f814c08f61ca6180f8c2
:1052e00061400b9a04f05cfe039b0122da7009a86e
:1052f000fef774f80446d0b931461198163005f01f
:1053000005f82a461199039804f04afe119b1022d1
:10531000da72039b0122da70039802f099f90446cd
:1053200078e7b5f1ff3f9dd104f01efc0124002277
:0a533000294604a802f0b0f86ce76b
:020000040000fa
:02533a00fee78c
:020000040000fa
:10533c002de9f04f83b00446894607684ff0ff0a09
:10534c0055460426d0464ff6ff7b64e00f2a50d119
:10535c0013f0400f0ad090f80da003f0bf03626960
:10536c002263427b524506d045464ee09d4218bf13
:10537c0045464ad1f5e7c17e827e52ea01226fd1c1
:10538c00fe680196057825f04005013d05eb4502c8
:10539c0005eb8205334901f10d0e4ff0010c009322
:1053ac006346b44603e05a455ad171450fd011f803
:1053bc00012b86187678825c42ea0622002bf2d00a
:1053cc00ff2d4dd82cf8152013460135ede79c46e2
:1053dc00009b027812f0400f08d0bcf1000f05d0f2
:1053ec00ff2d3dd80022019921f81520013bddb29b
:1053fc000be01db904f023fd50452dd04ff0ff33c9
:10540c00236329e0454600e045460021204601f093
:10541c0046f90646f0b9e169c9b1384603f03effda
:10542c000646b8b9206a03789bb1c27a02f03f02f3
:10543c00a271e52be6d02e2be6d022f02001082914
:10544c0014bf00210121494580d04546dde71eb13e
:10545c0000e004260023e361304603b0bde8f08f82
:08546c004546d2e71ca3000035
:020000040000fa
:105474002de9f047d6b00190894606460022027015
:1054840048a901a8fcf7e0ff0746002865d1489b1e
:105494004993d3f818a0cdf82ca1baf1000f64d029
:1054a4004c464ff0200800252be002a949a8fff73d
:1054b4003dfb9df81e30002b72d00df11e012b46d2
:1054c40000e013465a1c11f8010f0028f9d1991c69
:1054d400a14256d8002a46d056a90b44a3f59d7381
:1054e400a21a013c13f8010901990855a242f8d106
:1054f400541e019b2f221a55ddf82ca1baf1000f7e
:1055040043d0414649a801f005fb002833d1509906
:10551400489803f0c7fe80bb5199489804f0e6fb15
:105524004b90294649a801f0f5fa40bb294649a801
:10553400fff702ff034660b95199489804f0d6fb7f
:105544005045b2d0294649a801f0adf803460028d9
:10555400ecd0042b14bf1f460227002333703846b7
:1055640056b0bde8f0872246c2e74c46013c019b99
:105574002f221a550be00746efe70746ede70746eb
:10558400ebe71127e9e71127e7e7a145eed0631c14
:10559400019a125d06f8012b1c469945f7d8dce701
:0855a400002cf0d02246a3e721
:020000040000fa
:1055ac0030b40c4600294dd000284bd04649097f19
:1055bc00002940f08680454d6d6805f00705012dea
:1055cc0046d0414908604a6000254d618d610d61ee
:1055dc00a84208bf2c468c60aa4218bf1d460a463a
:1055ec00cd6001211177394a127e12f0040f05d0db
:1055fc00364a916a117e11f0040ffad1334a518b5d
:10560c0041f004015183117e41f080011176a542d5
:10561c0002d92a1b2c490a612c4a526812f0070f36
:10562c002bd1294a9269a2421cd200782749886260
:10563c00013225498a61002b3bd0244b04229a75f8
:10564c0001213be0002b38d0002aafd1002135e0fe
:10565c0014b114f0010f31d1002bb2d013f0010fa3
:10566c00afd02be0184a1269002ae4d01749ff206a
:10567c008862013a14490a61dde76408124a9460b1
:10568c001169490811616d08d5609269944206d977
:10569c0000880e49886201320b498a61cbe70029e8
:1056ac00c9d00a4a4ff6ff7090620139064a11615f
:1056bc00c1e70121054b997500e00021084630bc7b
:1056cc0070470021fae700bf88b600200020014196
:020000040000fa
:1056dc002de9f047012940f28980c3698b4240f2e1
:1056ec00878016460c4605460378022b4dd0032bbb
:1056fc0060d0012b03d002273846bde8f08701ebc0
:10570c005108816a01eb582103f0c8fd07460028b7
:10571c00f2d105f1400908f1010ac8f3080814f0a8
:10572c00010f1ad019f8083003f00f0343ea0613df
:10573c0009f808300123eb70a96a01eb5a212846bd
:10574c0003f0acfd002855d1caf308014944c6f357
:10575c0007120a700123eb70cee709f808600123e9
:10576c00eb70a96a01eb5a21284603f097fd00283b
:10577c0042d1caf3080a09eb0a0119f80a3023f0de
:10578c000f03c6f303221a43e3e7816a01eb1421ea
:10579c0003f084fd07460028aed105f140036100fb
:1057ac0001f4ff7158185e54c6f3072242700123ae
:1057bc00eb70a1e7816a01ebd41103f06ffd074692
:1057cc00002899d126f0704605f14003a10001f4a0
:1057dc00fe715c18204604f09afc00f070413143d5
:1057ec00204604f08dfd0123eb7085e7022783e74b
:0c57fc00022781e707467fe707467de7ac
:020000040000fa
:105808002de9f04784b00446884601921d464ff0c2
:1058180000094e46424f33e02a464146204602f0f0
:10582800ebfa636a73b938b13d4b4ff080521a6096
:10583800bff34f8fbff36f8f04f0f6fc012004b065
:10584800bde8f08704f1240002f086fb0028f3d0bd
:10585800334b4ff080521a60bff34f8fbff36f8ff7
:10586800eae704f0e1fc0020e9e702a804f002fc02
:1058780014e0204602f007fa00f066fd4ff0010937
:1058880004f092faa26be36b9a42c5d3022dc3d0ff
:10589800019b002be5d0b9f1000fe6d004f0c4fc61
:1058a80004f070fd04f080fa94f844305bb2b3f170
:1058b800ff3f08bf84f8446094f845305bb2b3f109
:1058c800ff3f08bf84f8456004f0aefc01a902a8b8
:1058d80002f08cffe8b904f067fad4f838a0d4f8dd
:1058e8003c9004f0a1fcca45c3d1019904f1100011
:1058f80004f01afb204602f0c6f900f025fd002846
:10590800bcd14ff080533b60bff34f8fbff36f8f15
:10591800b4e7204602f0b7f900f016fd00208ee744
:0459280004ed00e0aa
:020000040000fa
:10592c0030b4434b434a1a604ff400121a61012001
:10593c0083f84c0083f84d0083f84e00022283f864
:10594c004f2083f8502083f8512083f8522083f89d
:10595c00532083f8552083f8580083f8590083f8b6
:10596c005b20222483f8364083f83720002183f80b
:10597c00381083f8391083f83a10772583f83c50a7
